:020000040000fa
:08000000c01404000000000020
:020000040000fa
:10280000c014040000000000ee17040000000000e7
:10281000ee17040000000000ee17040000000000a6
:10282000ee17040000000000ee1704000000000096
:10283000ee17040000000000ee1704000000000086
:10284000ee17040000000000ee1704000000000076
:10285000ee17040000000000ee1704000000000066
:102860000030040000000000ee170400000000002b
:10287000ee17040000000000ee1704000000000046
:10288000ee17040000000000ee1704000000000036
:10289000ee17040000000000ee1704000000000026
:1028a000ee17040000000000ee1704000000000016
:1028b000ee17040000000000ee1704000000000006
:1028c000ee17040000000000ee17040000000000f6
:1028d0002830040000000000ee1704000000000093
:1028e000ee17040000000000ee17040000000000d6
:1028f000ee17040000000000ee17040000000000c6
:10290000ee17040000000000ee17040000000000b5
:10291000ee17040000000000ee17040000000000a5
:10292000ee17040000000000ee1704000000000095
:10293000ee17040000000000ee1704000000000085
:10294000ee17040000000000ee1704000000000075
:10295000ee17040000000000ee1704000000000065
:10296000ee17040000000000ee1704000000000055
:10297000ee17040000000000ee1704000000000045
:020000040000fa
:102980000fb020000e7f22000e0188000000000022
:102990000c000700407a2100010020001100070010
:1029a000000020000000e0000200320000000200f1
:1029b0000000000032300200000000000040da0099
:1029c0000000fe004440a900201c20000000e000a0
:1029d0000300320000002000a00188004440a8004d
:1029e0000000060091018800800078000000eb00e4
:1029f00015003700e280400032a0b4009101ba0017
:102a0000e280400032a0b4009102ba00e2804000af
:102a100032a0b4000002eb00472bde00f507b20045
:102a2000602ce10004003a000059eb008301e9004a
:102a3000fdff3e00040037006128e1000100320084
:102a40000082eb00040007001101ba000200e00060
:102a5000e8ff3a00000006003159ba008301e9009e
:102a60000c0032002159ba008301e900080032004d
:102a70000400e00003003a00e280400032a0b4000d
:102a8000f5ff370011d9ba008301e900faff3a00d7
:102a90008100e800e180400032a0b40000000600a0
:102aa0008001eb000200370061f079008301e8004b
:0c2ab000828f5100fcff3a00000006007d
:020000040000fa
:020000040001f9
:0457f00033ff000083
:020000040000fa
:020000040001f9
:0457f400c0fc0000f5
:020000040000fa
:020000040001f9
:0457f8008f99000085
:020000040000fa
:020000040001f9
:0457fc00643f000006
:020000040000fa
:1000080004140000081400000c1400001014000070
:1000180014140000bc140000bc140000bc14000040
:10002800181400001c140000201400002414000000
:10003800bc140000281400002c1400003014000028
:1000480034140000381400003c1400004014000070
:100058004414000048140000bc140000bc14000044
:100068004c140000501400005414000058140000f0
:100078005c140000bc140000bc140000bc14000098
:10008800bc14000060140000641400006814000030
:100098006c14000070140000741400007814000040
:1000a8007c14000080140000bc140000bc14000084
:1000b800bc14000084140000881400008c14000094
:1000c800bc14000090140000bc140000bc14000014
:1000d800bc14000094140000bc140000bc14000000
:1000e800bc140000981400009c140000bc1400000c
:1000f800bc140000bc140000bc140000bc140000b8
:10010800bc140000bc140000bc140000bc140000a7
:10011800bc140000bc140000a0140000bc140000b3
:10012800bc140000a4140000a8140000ac140000c3
:10013800bc140000bc140000bc140000bc14000077
:10014800b0140000bc140000bc140000bc14000073
:10015800bc140000b4140000bc140000bc1400005f
:10016800bc140000bc140000bc140000bc14000047
:10017800bc140000bc140000b8140000bc1400003b
:10018800bc140000bc140000bc140000bc14000027
:10019800bc140000bc140000bc140000bc14000017
:1001a800bc140000bc140000bc140000bc14000007
:1001b800bc140000bc140000bc140000bc140000f7
:1001c800bc140000bc140000bc140000bc140000e7
:1001d800bc140000bc140000bc140000bc140000d7
:1001e800bc140000bc140000bc140000bc140000c7
:0801f800bc140000bc1400005f
:020000040000fa
:102abc000080000040c0000020a0000060e000008a
:102acc001090000050d0000030b0000070f00000fa
:102adc000888000048c8000028a8000068e800002a
:102aec001898000058d8000038b8000078f800009a
:102afc000484000044c4000024a4000064e400002a
:102b0c001494000054d4000034b4000074f4000099
:102b1c000c8c00004ccc00002cac00006cec0000c9
:102b2c001c9c00005cdc00003cbc00007cfc000039
:102b3c000282000042c2000022a2000062e20000f9
:102b4c001292000052d2000032b2000072f2000069
:102b5c000a8a00004aca00002aaa00006aea000099
:102b6c001a9a00005ada00003aba00007afa000009
:102b7c000686000046c6000026a6000066e6000099
:102b8c001696000056d6000036b6000076f6000009
:102b9c000e8e00004ece00002eae00006eee000039
:102bac001e9e00005ede00003ebe00007efe0000a9
:102bbc000181000041c1000021a1000061e1000081
:102bcc001191000051d1000031b1000071f10000f1
:102bdc000989000049c9000029a9000069e9000021
:102bec001999000059d9000039b9000079f9000091
:102bfc000585000045c5000025a5000065e5000021
:102c0c001595000055d5000035b5000075f5000090
:102c1c000d8d00004dcd00002dad00006ded0000c0
:102c2c001d9d00005ddd00003dbd00007dfd000030
:102c3c000383000043c3000023a3000063e30000f0
:102c4c001393000053d3000033b3000073f3000060
:102c5c000b8b00004bcb00002bab00006beb000090
:102c6c001b9b00005bdb00003bbb00007bfb000000
:102c7c000787000047c7000027a7000067e7000090
:102c8c001797000057d7000037b7000077f7000000
:102c9c000f8f00004fcf00002faf00006fef000030
:102cac001f9f00005fdf00003fbf00007fff0000a0
:102cbc0012010000100100000000000000080000dc
:102ccc00fb0900000160000000040000010200008c
:102cdc0003010000090200002000000001010000b7
:102cec000080000028090000040000000002000021
:102cfc00ffff0000ff00000007050000810200003c
:102d0c004000000001070000050200000240000026
:102d1c000001000004030000090400000e03000081
:102d2c00410000006c000000740000006500000011
:102d3c007200000061000000180300005500000044
:102d4c0053000000420000002d0000004200000073
:102d5c006c000000610000007300000074000000b3
:102d6c00650000007200000012030000300000003b
:102d7c003000000030000000300000003000000087
:102d8c0030000000300000003000000070960000a1
:102d9c002203000055000000530000004200000018
:102dac002d000000420000006c00000061000000db
:102dbc007300000074000000650000007200000049
:102dcc00320000003400000020000000470000002a
:102ddc00440000009096000094960000a29600001b
:102dec00ba960000ce96000024490000643a000018
:102dfc0055530000425f0000424c0000415300005c
:102e0c0054450000522e000043200000566500007f
:102e1c0072200000322e0000302e00003120000005
:102e2c002d200000323900002f3600002f32000018
:042e3c00360000005c
:020000040000fa
:10600000801f78000621ef00cc42aa000048ec0077
:1060100000e8b700e169ec00e54f500002003200f3
:10602000ea4f500007003a00e069ec00ea4f5000e8
:1060300004003a000068ef0010c0b300dfe9b700c9
:10604000de69ec0084e0a9004f0078000040060003
:1060500000a0fe001421ef008760a9000080fe0070
:1060600000400600889fbe00ae0207004027ef00f8
:10607000a98d2000c8882000970507001b03070092
:1060800000528000ff0f50000300360088c4bf009c
:106090000018a30002003200c482a9009f0237004a
:1060a000c04680000000e000030032001040900075
:1060b0000004e0008e003500b18c20009140780093
:1060c000a08c200010c1100002007800cce8b700be
:1060d000d0c3b300804f51003400360020ccb30051
:1060e00080cf50000a003e000180fb000900400004
:1060f000c28820003d00090030597800e003b1005b
:10610000e2c3b30002c04000cbe8b7001400370080
:106110000141ea0002007800cde8b7000281fb00ef
:10612000b18c2000914078008180fb008980400084
:10613000080078005af20700d18c200091407800c6
:106140008180fb0008804000e20320000101510033
:106150008900780052f20700e0c3b300cb68b400b6
:1061600091528000c1468800a088200090009800cd
:1061700001c4b300c046800001487800c1468000d9
:10618000114090000044b20090409800c246800048
:106190001240900081c8b300014070001041980087
:1061a000524aaa0084e0a800510037000204e0002f
:1061b00038003200b38c2000934178008380fb00cc
:1061c0000281fb000010200002005000808f500070
:1061d00006003c0089804000c088200030f20700a3
:1061e000ccc8bf00cb68b400160037000341ea00fa
:1061f00002007800cde8b7000281fb00b18c2000de
:10620000914078008180fb00898040000800780080
:1062100023f20700d18c2000914078008180fb00a0
:1062200008804000c28c2000124178000281fb00ef
:10623000010151008900780019f20700ccc8bf00a5
:10624000cb68b40091528000c1468800a08820002d
:1062500090009800ccc8ec0080407800c0468000d8
:1062600001487800c1468000114090000044b2000f
:1062700090409800c24680001240900081c8b30050
:106280000140700010419800524aaa0084e0a80022
:10629000170037008440e20015003d00409c2000bc
:1062a000600888000621ef0084e0a9009152800078
:1062b000c1468800a08820009000980021c0b3004b
:1062c000c046800001487800c1468000114090001f
:1062d0000044b20090409800c246800012409000f6
:1062e00081c8b3000140700010419800524aaa00d2
:1062f000ce48e2001b003a00d148e2000c00350015
:10630000a24680000200e0000400320092409000ab
:1063100000c8b30080c0600010003a00124078004e
:10632000cee8b700d268ef00d128a8000b003700f4
:10633000b14680000100e0000300320011409000ef
:106340000004e0000500350011407800cee8b700f9
:1063500000c4b300d2e8b700d128a800ce48e200bc
:10636000ab013200c482a900cf48e20083003200b2
:10637000c9a2a800c922a800a8c6bf0001ceb300c8
:1063800001406000e040b300a8e6b700c9c6bf0006
:10639000014060000034a000c9e6b700cdc6bf00d0
:1063a000014060007040b300cde6b70041e2a800b4
:1063b000c922a900c9a2a900228d2000124178009b
:1063c0008280fb00a0802000614078000080fb00fc
:1063d000e1552900801f780060c07800cce8b70044
:1063e0004f0078000241e80002007800d2e8b700d0
:1063f000d108ab0024003a00a2802000810178007f
:10640000ccc8bf000080fb0040128800218d200016
:10641000914078000180fb00604079000080fb0023
:10642000801f780060c07900cce8b7004f0078008a
:106430008140e80001007800d2e8b7000100370091
:106440000060fe0040c2bf000018a300fcff3a003d
:1064500040c2bf000008a300f9ff320040128000d4
:10646000cf48ed0000427800cfe8b700ce48ed00fd
:10647000cee8b7000404e000300032000004e00081
:106480002e003200deff3700ccc8bf000080fb00ca
:1064900040128800228d2000124178008280fb008b
:1064a000a0802000614078000080fb00e1552900b9
:1064b000801f780060c07800cce8b7004f007800fb
:1064c0000241e80002007800d2e8b700010037007e
:1064d0000060fe0040c2bf000018a300fcff3a00ad
:1064e00040c2bf000008a300f9ff32004112800043
:1064f000e0552900e141780003007800cde8b700bd
:10650000cac8bf000081fb00a18d200003f1780004
:106510000040e800cae8b700cf48ed00004178002d
:10652000cfe8b700ce48ed00cee8b7000204e000a7
:10653000020032000004e000d3ff3a00d268ed0010
:10654000c9a2a800c922a80041e2a900f0c1b30075
:10655000a866b700c9c6bf0001ceb3000140600005
:10656000c9e6b700cdc6bf0001406000cde6b70068
:10657000c922a900c9a2a90023013700d048e2001e
:10658000de003200d108ab0058003a00c9a2a800d2
:10659000c922a800a8c6bf0001ceb3000140600018
:1065a000e040b300a8e6b700c9c6bf0001406000e4
:1065b0000034a000c9e6b700cdc6bf0001406000ae
:1065c0007040b300cde6b70041e2a800c922a9009f
:1065d000c9a2a900228d2000124178008280fb0010
:1065e000a0802000614078000080fb00e155290078
:1065f000801f780060c07800cce8b7004f007800ba
:106600000241e80002007800d2e8b700a68020002e
:1066100081037800c48c200014427800058d20008e
:1066200095427800e38c2000934178000480fb00c1
:10663000401288000280fb0060407b000080fb006d
:1066400060c27b000241e800010037000060fe00ec
:1066500040c2bf000018a300fcff3a0040c2bf00c8
:106660000008a300f9ff3200401280000540e90055
:10667000804278008340e900814178000004e00016
:10668000020032000104e000e8ff3a000300780055
:10669000cee8b70005007800d0e8b7000200780027
:1066a000d2e8b70004007800cce8b700d268ed006b
:1066b000c9a2a800c922a80041e2a900f0c1b30004
:1066c000a866b700c9c6bf0001ceb3000140600094
:1066d000c9e6b700cdc6bf0001406000cde6b700f7
:1066e000c922a900c9a2a900c7003700d2c8bf00ab
:1066f0000081fb00a1802000801f780062c078002c
:10670000cce8b7004f0078000040e800d2e8b700be
:10671000cd68ef00cc08ab0002003200cda2a8008b
:1067200001003700cda2a900cbc2bf000068a300c2
:1067300001003200cd08a800cd22a8000000000012
:1067400000000000cd22a900cc28ab0002003200de
:10675000cda2a80001003700cda2a900cbc2bf0086
:106760000068a30001003200cd28a800cd22a800b7
:106770000000000000000000cd22a900cc48ab00c2
:1067800002003200cda2a80001003700cda2a9006e
:10679000cbc2bf000068a30001003200cd48a800b2
:1067a000cd22a8000000000000000000cd22a900ba
:1067b000cc68ab0002003200cda2a8000100370077
:1067c000cda2a900cbc2bf000068a3000100320027
:1067d000cd68a800cd22a800000000000000000045
:1067e000cd22a900cc88ab0002003200cda2a800c7
:1067f00001003700cda2a900cbc2bf000068a300f2
:1068000001003200cd88a800cd22a80000000000c1
:1068100000000000cd22a900cca8ab00020032008d
:10682000cda2a80001003700cda2a900cbc2bf00b5
:106830000068a30001003200cda8a800cd22a80066
:106840000000000000000000cd22a900ccc8ab0071
:1068500002003200cda2a80001003700cda2a9009d
:10686000cbc2bf000068a30001003200cdc8a80061
:10687000cd22a8000000000000000000cd22a900e9
:10688000cc48e20003003d00cda2a800cc48e200c5
:1068900001003500cda2a900cbc2bf000068a30053
:1068a00001003200cde8a800cd22a80000000000c1
:1068b00000000000cd22a900cac8bf000081fb0073
:1068c000a18d2000d38c200013f178000040e80057
:1068d000cae8b700d048ed0000417800d0e8b70022
:1068e000ce48ed00cee8b7000204e00046003200da
:1068f0000004e000440032007cff3700d2c8bf0033
:106900000081fb00a1802000801f780062c0780019
:10691000cce8b7004f0078000040e800d2e8b700ac
:10692000ccc8ab0002003200d108a800010037003b
:10693000d108a900c38c2000934178000304e00033
:106940000c003d00cd22a900cc22ab000400320097
:10695000f1c3b30001c06100cfe8b7000300370006
:10696000ccc8bf00f043b200d0e8b700ce68ed005d
:10697000250037000380fb006c0160004291de00bf
:10698000e1006000c908dd00828070004719dd0069
:106990000210b200010171000009b2000000ea001b
:1069a0004f00de004d00dd00020070006016880020
:1069b000d108ab0011003200cd68ef00cbc2bf00a0
:1069c0000068a3000200320020c0b300cde8b70089
:1069d000cbc2bf000068a30001003200cd08a800b0
:1069e000cac8bf000081fb00a18d2000d38c20000d
:1069f00013f178000040e800cae8b700ce48ed0087
:106a0000cee8b700bdff3a00ce48e20056fe3a009d
:106a1000118d2000914078000118a3003f00320042
:106a2000ce48e2003d003a00c482a80000c8b3008e
:106a300080c160001b003a0071528000a1468800ae
:106a4000a08020009000980001c4b300a046800000
:106a500001487800a1468000114090000044b20037
:106a600090409800a24680001240900081c8b30078
:106a700001407000104198004e4aaa00034078007f
:106a8000d148e2000100350010c0b300c700dd00ae
:106a9000d1c8bf000074a10001407000d1e8b70068
:106aa0001d00370071528000b1468800a08420008c
:106ab0009000980001c4b300b046800001487800ff
:106ac000b1468000114090000044b2009040980010
:106ad000b24680001240900081c8b30001407000af
:106ae000104198004e4aaa00d1c8bf0000c0ea0079
:106af0000080fb004700de004700dd00118d200014
:106b0000914078000174a10080c070008000fd00f9
:106b1000d1e8b7008000fd00d128a9007900070066
:106b200055fd3700881f780044a7a8008025200065
:106b30000000e900e10f4000fdff3a000004eb0017
:106b400008168800481688007816880060198800a2
:106b50002816880068168800103a8000f00bb200f2
:106b60006204200073052000217420008248780010
:106b70008348780080487800a8c6bf0001ceb300e3
:106b800001406000e040b300a8e6b700c9c6bf00fe
:106b9000014060000034a000c9e6b700cdc6bf00c8
:106ba000014060007040b300cde6b700103a8000ad
:106bb0000060a0002174200082487800834878009b
:106bc0008048780045c7bf0081cfb3000140600016
:106bd00045e7b700080007006f0207000004fd004a
:106be000e6e9b7000004fd0000000000000000001e
:106bf0004f047800000006000060fe0000a821009d
:106c000061002000e5f007000060fe0000a8210000
:106c100061002000e1f007000060fe0000a82100f4
:106c200061002000ddf007000060fe0000a82100e8
:106c300061002000d9f007000060fe006960a80034
:106c40006b60a8008000eb000116880041168800e8
:106c5000c9c2a800c9c2a800f0fe2f00c422b60015
:106c6000c022b60030ff2f00cc22b600c822b600ea
:106c7000c8a2a800c9e2a80000302600601688005b
:106c8000000228008008880094e0a9000112880012
:106c9000b01320001012880021128800c9a2a80099
:106ca000c922a80041e2a900f0c1b300a866b7005c
:106cb000c9c6bf0001ceb30001406000c9e6b700fd
:106cc000cdc6bf0001406000cde6b700c922a900d3
:106cd000c9a2a90010c3b3008ae8b70000c6b30078
:106ce0008be8b700f60a0700000006001000070056
:106cf00000528000ff0f50000100360088c4bf0022
:106d0000000006000060fe000408ec00204088003f
:106d100082b52100110009000280d8000100e000c6
:106d200002003a000228ec00cac2bf0000000600c0
:106d30000608e20002003a0000e224003040880029
:106d40000608ed00304088000d003a0088c4bf00fe
:106d50000018a3000300320000c42900304088005e
:106d6000070037000152800000022000808f500091
:106d700002003a00cc62aa0001003700cc62a800f1
:106d8000000006002ef007000000060000000600cc
:106d90000000060000000600881f780070cabf00cf
:106da0000046b20001c4b300814f500024003a00f5
:106db000704ae2000600350080a72000b05188002c
:106dc0003a2aef0010ccb30038eab7001c003700b5
:106dd00011a720009140780000c9b30080cf500077
:106de0000d003a0041a720009140780075cabf000d
:106df00001c0400000047800e807b20008007800f5
:106e0000a709070078eab7000800e800a40907000e
:106e100079eab7000400370060c3b30078eab7002e
:106e200030c8b30079eab70080a72000b0518800cd
:106e300020002000d051880010ccb30038eab70001
:106e40004f047800000006000000060051c1b300a6
:106e500010c0b300c302070091c1b30020c0b3004b
:106e6000c00207000000eb00a0468800b046880082
:106e7000c0468800cae8b700cbe8b700cee8b70044
:106e8000cfe8b700d0e8b700d1e8b700d2e8b70044
:106e9000000006003c0ae200160032003e0ae20052
:106ea000140032008824a9008000eb00f151880012
:106eb00000e12000404088000100780001e120004e
:106ec0000000e800810f5000fdff3a009444a80044
:106ed00080702000404088000000eb00817020009e
:106ee0000000e800810f5000fdff3a000828ef0085
:106ef0009444a9000000060080007800e30f5000d1
:106f00000a00320050072000808f5000030032003a
:106f1000e18f500006003a000200370099ff070099
:106f200003003700c9ff0700010037009aff070080
:106f30001000200000000600889fbe0000c4b300bf
:106f4000d2e8b700cb68ef0032c5b300020078008a
:106f5000cce8b70041128000e0552900614078007c
:106f6000cde8b7000001fd00dae8b7000001fd0040
:106f7000dbe8b70020c0b300cae8b700cda2a80084
:106f8000cd22a8000000000000000000cd22a900d2
:106f9000cda2a800cd22a800000000000000000043
:106fa000cd22a9000228a30002003200cda2a80031
:106fb00001003700cda2a900cd22a80000000000ea
:106fc00000000000cd22a900cc68ab000200320016
:106fd000cda2a80001003700cda2a900cd22a800b3
:106fe0000000000000000000cd22a900cc88ab000a
:106ff00002003200cda2a80001003700cda2a900f6
:10700000cd22a8000000000000000000cd22a90051
:10701000cca8ab0002003200cda2a80001003700ce
:10702000cda2a900cd22a8000000000000000000b1
:10703000cd22a900ccc8ab0002003200cda2a8002e
:1070400001003700cda2a900cd22a8000000000059
:1070500000000000cd22a900cc48e20002003d0063
:10706000cda2a80001003700cda2a900cd22a80022
:107070000000000000000000cd22a900cd68ef0054
:10708000cc08ab0002003200cda2a80001003700fe
:10709000cda2a900cbc2bf000068a300020032004d
:1070a00010c0b300cde8b700cd22a800000000005a
:1070b00000000000cd22a900cc28ab000200320065
:1070c000cda2a80001003700cda2a900cbc2bf000d
:1070d0000068a30001003200cd28a800cd22a8003e
:1070e0000000000000000000cd22a900cc48ab0049
:1070f00002003200cda2a80001003700cda2a900f5
:10710000cbc2bf000068a30001003200cd48a80038
:10711000cd22a8000000000000000000cd22a90040
:10712000cc68ab0002003200cda2a80001003700fd
:10713000cda2a900cbc2bf000068a30001003200ad
:10714000cd68a800cd22a8000000000000000000cb
:10715000cd22a900cc88ab0002003200cda2a8004d
:1071600001003700cda2a900cbc2bf000068a30078
:1071700001003200cd88a800cd22a8000000000048
:1071800000000000cd22a900cca8ab000200320014
:10719000cda2a80001003700cda2a900cbc2bf003c
:1071a0000068a30001003200cda8a800cd22a800ed
:1071b0000000000000000000cd22a900ccc8ab00f8
:1071c00002003200cda2a80001003700cda2a90024
:1071d000cbc2bf000068a30001003200cdc8a800e8
:1071e000cd22a8000000000000000000cd22a90070
:1071f000cc48e20002003d00cda2a800010037000b
:10720000cda2a900cbc2bf000068a30001003200dc
:10721000cde8a800cd22a80000000000000000007a
:10722000cd22a900cd68ef00cc08ab0002003200ef
:10723000cda2a80001003700cda2a900cbc2bf009b
:107240000068a3000200320010c0b300cde8b70010
:10725000cd22a8000000000000000000cd22a900ff
:10726000cc28ab0002003200cda2a80001003700fc
:10727000cda2a900cbc2bf000068a300010032006c
:10728000cd28a800cd22a8000000000000000000ca
:10729000cd22a900cc48ab0002003200cda2a8004c
:1072a00001003700cda2a900cbc2bf000068a30037
:1072b00001003200cd48a800cd22a8000000000047
:1072c00000000000cd22a900cc68ab000200320013
:1072d000cda2a80001003700cda2a900cbc2bf00fb
:1072e0000068a30001003200cd68a800cd22a800ec
:1072f0000000000000000000cd22a900cc88ab00f7
:1073000002003200cda2a80001003700cda2a900e2
:10731000cbc2bf000068a30001003200cd88a800e6
:10732000cd22a8000000000000000000cd22a9002e
:10733000cca8ab0002003200cda2a80001003700ab
:10734000cda2a900cbc2bf000068a300010032009b
:10735000cda8a800cd22a800000000000000000079
:10736000cd22a900ccc8ab0002003200cda2a800fb
:1073700001003700cda2a900cbc2bf000068a30066
:1073800001003200cdc8a800cd22a80000000000f6
:1073900000000000cd22a900cc48e20002003d0020
:1073a000cda2a80001003700cda2a900cbc2bf002a
:1073b0000068a30001003200cde8a800cd22a8009b
:1073c0000000000000000000cd22a900b18c2000c8
:1073d000914078008181fb00cac8bf000081fb009a
:1073e000028051000010b000808f510008003c0066
:1073f00003015100a18d200081804100c088200040
:10740000a7ed0700cac8bf00cbe8b7001a003700d5
:107410000141ea0002007800cde8b700c9882000e9
:107420000281fb008180fb00a88d20008880400045
:10743000090078009aed0700d18c20009140780077
:107440008180fb0089814000a28c200012417800dd
:107450000281fb00cbc8bf000080fb00000151008f
:107460000101510088007800030078008ced0700ce
:10747000cac8bf00cbe8b7000040eb00cce8b700bb
:10748000dae8b70011c0b3008000fd00cae8b70019
:107490008000fd0000417800a38d20000241e8003b
:1074a0000180fb0002f079008140e800e14f4100db
:1074b000faff3a0002007800cce8b70040c6b300fb
:1074c000cae8b700c9882000809920003d00090063
:1074d000b05c7800e903b100c1cfb30001007800cf
:1074e000cbe8b7000141ea0002007800cde8b70020
:1074f0000281fb008180fb00a88d20008880400075
:107500000900780066ed0700cdc8bf000080fb00d1
:1075100089014000e203200000015100880078004a
:10752000030078005eed0700e0c3b300cb68b40051
:10753000218d2000914078000181fb00a080200077
:10754000624078000080fb00e4552900801f78002d
:1075500060407a00cde8b7004f0078008140e80035
:1075600001007800d2e8b700a18c2000914078009b
:10757000431280000181fb00e3417a0003717c002b
:107580008140e80001007800cae8b7000000000070
:107590004f04be00000006009ec0a9000080eb0062
:1075a00070248800502488008000eb00512588005a
:1075b000ac24ef00ae24ef0020002000302588002e
:1075c000412588008644a900f00920008024880015
:1075d0006024880082c4a9008804a80000a02000bc
:1075e0004800de00c024880004a020006011b8001c
:1075f0004208dd00040040000288be008100e8006f
:10760000ec8f5000faff3a009424a8009624ef0073
:1076100094a4a9009424a9008ac4bf000038a30040
:107620000c003200850020008040eb0055248800cb
:107630008ac4bf0068406000fcff3a008000fd0083
:1076400047eab70046eab70045eab7008000fd0008
:1076500038eab7001000200060538800705388009b
:107660000000eb00a051880080518800f051880094
:1076700003a52000a2a420008000eb0045a6200066
:1076800074a62000811978000119780001f07a00b1
:1076900001707a000000e800e30f5000f9ff3a00a3
:1076a00080a0200080528800d00020005025880053
:1076b00000a720001050880080c0b30000eab70087
:1076c00040c8b30001eab7000100780042eab70001
:1076d0000152880000000600881f7800400ae2007e
:1076e00015003a008000eb00a12488006124880086
:1076f0002000200030258800412588008644a9000c
:10770000f0092000802488006024880082c4a90039
:1077100094c4bf000008a30005003a009404a80028
:107720000060fe0094c4bf000008a300fbff32000d
:10773000100020000052880000528000e10f50002d
:1077400009003a0094c4bf000068a30006003a0094
:107750008aa4ef008c24ef008c04a8008c84a8007d
:10776000200020000052880080c4bf000048a30011
:107770000600320082c4bf000048a30003003200ac
:107780000001200000248800d202070088c4bf0046
:107790000018a300020032008ec0a9006f0037005d
:1077a0008ac4bf000008a300080032008cc4bf00d8
:1077b0000008a3000500320077ff0700400020000a
:1077c0000052880010002000502488008ac4bf00a6
:1077d0000048a300060032008cc4bf000048a3008c
:1077e00003003200b102070000012000502488008d
:1077f0008ac4bf000028a3000f0032008cc4bf0061
:107800000028a30004003200120020008000eb00da
:1078100030072000b8fd07004000200050248800f9
:107820006acabf00030032000040e9006aeab700fc
:1078300001003a00c60007008a44e20006003d004d
:10784000c14820009140780000c8b30080c06000ab
:1078500001003200820207008ac4bf000018a300a2
:107860000a0032008cc4bf000018a30007003200d9
:10787000120020008000eb00f0ff27009efd0700b3
:107880008ea4ef00200020005024880000528000c9
:10789000e30f500002003e008ec0a9002f00370009
:1078a0008cc4bf000038a3002b00320048c0b300d6
:1078b0008ac4bf000038a300270032009024800053
:1078c00060eab7008080fb00c408de0081417800d8
:1078d0008000fd0061eab7008000fd00810020000b
:1078e000512488000038a30009003a000380fb00ff
:1078f00071a620000100400010417800e1406100c5
:107900000104a2001004a10010c870000800370094
:107910000380fb0041a620000100400010417800d8
:10792000e14061000104a2001004a10010c8700031
:107930000304e00002003a006f0207000400370071
:107940000001eb0001a62000200720006afd0700cf
:107950000844e900d6ff3a008ec0a9004f04780021
:1079600000000600889fbe008a1f780080447800cf
:10797000014578000184fb000838a30002003200b2
:107980008040eb00c10007000828a300030032007c
:1079900011c0b30009407800bc0007000980fb005b
:1079a00000004000a14a20000af078004f0578004e
:1079b0004f04be00000006008042780001437800ba
:1079c0000104e000050032000080fb0000004000e0
:1079d00001a5200060827800040037000080fb00d1
:1079e00000004000a1a42000608278000400e000b4
:1079f00002003a00040078001700370012029800d5
:107a0000034a7800144090000044b20010429800ed
:107a10001440900081c8b3000140700010429800eb
:107a20000604e000060032000580fb000000400074
:107a300001a52000010040001024a200050037002d
:107a40000580fb0000004000a1a4200001004000d0
:107a50001024a20004007800000006000141780014
:107a60000004e0000d003a0081c0b300d052800055
:107a70000148780001a72000d05280001100980032
:107a8000c1c8b300d052800011409800e8c0500037
:107a90008052800011409800100037008080fb0069
:107aa000818040000280fb0080804000c308dd0030
:107ab00002a02000028140001240900043c8b300a1
:107ac000034070001041980040a0200080804000da
:107ad00011409000034070009040980000000600a4
:107ae0008040780094c4bf000058a3001700320003
:107af0000181fb000201410003a52000628379009f
:107b00001600be00040420000500200000006200f2
:107b100001002000008bbe006280790010186a000e
:107b200010906a00030141001224a2009200780024
:107b3000114090000044b2009040980092007800fc
:107b4000114090000440680090409800000006003a
:107b50006c0ae20023003a00100020006053880005
:107b6000715380000100e0001e003a00705388004d
:107b70005dcabf00e24f500006003a00805280000c
:107b80000148780081ccb3008052800011409800f9
:107b900014003700e14f500012003a0083c0b300d8
:107ba000c05280000348780002a72000c052800025
:107bb0001200980041c8b300c052800011409800e4
:107bc0001000200010538800d05280000348780035
:107bd000d052800012009800e4c05000d0528000c3
:107be00011409800000006000000eb00a051880042
:107bf00080518800d0a5200021c0b30090cf100094
:107c00000a003a0081c0b300d052800001487800d9
:107c100081a72000d05280001100980081ccb300d1
:107c2000d0528000114098001700370076cabf007c
:107c30000080fb0071a7200091407800c808dd009b
:107c400080807000d0518000808f5000070031008c
:107c500061a72000914078008180fb0077cabf00b7
:107c60004800dd0001007000d05188005c00070072
:107c700081a72000805280001100980081ccb300c1
:107c80008052800011409800000006008081fb00b7
:107c9000038241000180fb00000042004300dd0040
:107ca00002a0200002014000124090000074a100d8
:107cb000104198000104e00003003a00a0a4200055
:107cc00002327800030037008380410000a52000c5
:107cd00082307800124090000064a10010419800aa
:107ce000e4004100114090000064a0009040980022
:107cf0000000060094a4a90038eaab0018003a007e
:107d0000454ae20009003d0020c0b3005deab7002b
:107d1000300ae20001003a00b3ff07000000eb0068
:107d200070538800605388002c00370081c0b30076
:107d3000d05280000148780001a72000d052800076
:107d400011009800c1c8b300d052800011409800c3
:107d5000e8c0500080528000114098001f0037009a
:107d6000704ae2000c003d0010c0b3005deab700ad
:107d7000340ae20001003a009bff07000000eb001c
:107d80007053880060538800320ae20013003a0002
:107d90006fff07001100370020c0b3005deab70095
:107da00081c0b300d05280000148780001a72000b4
:107db000d05280001100980041c8b300d05280001a
:107dc000114098000000eb00705388006053880059
:107dd000320ae20001003a005dff070000000600e1
:107de000d151800082c0b300e78f50000a003e00ee
:107df000014178005ccabf0003003a0010c0b30024
:107e00005ceab70004003700e14f500002003a007e
:107e100020c0b3005ceab7000280fb000080500085
:107e2000d0518800805280000248780080a720004e
:107e3000f0528800380aab001700320012003700f9
:107e4000f0528000b151800031587800f052880023
:107e5000b15188000241e900834f51001100320006
:107e6000f7ff3700f0528000b151800031587800a0
:107e7000f0528800b15188000241e900834f51005f
:107e800008003200f7ff37008041eb000204e000f9
:107e9000f4ff3a00030037008041eb000204e000e9
:107ea000e7ff3a0000000600c05280001042780050
:107eb00061a42000914078008180fb0047cabf0088
:107ec0004800dd00810070000480fb00810f50003d
:107ed00001003600014278000480fb000080500061
:107ee00046eab7004800de0047eab7000404e000b5
:107ef000140032008041eb000001eb0086a7200057
:107f0000f50f200043cabf000080fb0041a4200001
:107f100091407800c808dd0080807000e2587b0046
:107f20000580600043eab700c808de000100780061
:107f300044eab7008341e8000201e800834f5200a1
:107f4000f0ff3a0061a42000914078008180fb009e
:107f500047cabf004800dd00010070001200320077
:107f600081c0b300d05280000148780081a7200072
:107f7000d052800011009800c05280001040900044
:107f80000068a30004003a0081ccb300d052800006
:107f9000114098001900370081c8b300d05280000a
:107fa000114098001500370081c0b300d052800006
:107fb0000148780001a72000d052800011009800ed
:107fc00041c8b300d05280001140980081a4200025
:107fd000914078008180fb0049cabf004800dd0065
:107fe00001007000010032000000010045eaa90014
:107ff000320ae20001003a00d5fe07000000060048
:1080000038eaa8006000b800602588007125880063
:108010000050880011508800042aef00062aef0063
:10802000082aef000a2aef000c2aef000e2aef00c0
:10803000102aef00122aef00142aef00162aef0090
:10804000182aef001a2aef001c2aef001e2aef0060
:10805000202aef00222aef00242aef00262aef0030
:10806000282aef002a2aef002c2aef002e2aef0000
:108070009424a8000000eb0043a620008040eb0001
:1080800072a6200001f07900017079000000e8007c
:10809000e30f5000fbff3a000100780056eab700fa
:1080a0009424a90080a020008052880000a0200015
:1080b000c0528800d052880072cabf0042eab7009e
:1080c00003003a000001200000528800060037003b
:1080d0001200200021a420001000200086fb0700d1
:1080e00000022000005288000000060001a72000c6
:1080f0009140780000c8b30080cf500028003a00bb
:1081000000ccb30038eab70073cabf00e24f50009a
:1081100009003200e34f500012003200e14f5000de
:108120001e003a00e0652900b051880020012000bf
:10813000d05188001a00370072cabf000080fb00cf
:1081400000004000c16c2900e0807800b151880037
:10815000214090003aeab700314090003beab70076
:108160000f00370072cabf00e44f500009003e0004
:1081700072cabf000080fb0000004000016f2900b0
:1081800060807800b05188001080fb00d0518800da
:1081900003003700386aef0001003700386aef004b
:1081a000000006000040eb0078eab70079eab7006b
:1081b00070cabf007f006000e10f50000a0032006b
:1081c000e20f50000a0032000000e0001c003a00fc
:1081d00038eaa800e0518000e10f500018003a0092
:1081e000782aa8001600370038eaa80014003700e3
:1081f00038eaa800744ae2000600350074cabf00dd
:108200006f00600000004000a1a4200060807800a2
:108210000500370074cabf006f0060000000400016
:1082200001a52000608078000140280010806000d7
:10823000810f500002003a0010c0b30078eab70086
:1082400038eaab000500320080a72000b05188005a
:10825000380aa80020c0b3003aeab70000000600c0
:10826000aac4bf000018a3000d003200c252800053
:108270009240900000c8b30080cf500007003a0041
:10828000805280009040900040c8b30080cf5000e2
:1082900002003a006840400010419800aa24a9005a
:1082a0000008200050248800000006008284a800f6
:1082b000000120005024880010002000f0518800a8
:1082c0000001eb008000eb00500720000afb0700d4
:1082d000000006008000eb00f151880001017800e9
:1082e0004007200004fb07008284a9000001200051
:1082f0000024880000000600d0c2b3006aeab7007c
:1083000060cabf000080fb00000178000220a100cd
:108310000200e0001c003a00c00fb20001a02000e3
:1083200001004000c0528800d05288005a4aaa007a
:1083300010409000c043b20041c3b300814f5000d1
:108340000f003a0003a72000c152800011009000e6
:108350001040780000f17900110090000000e80062
:10836000900098000201e800e80f5100f6ff3a0083
:10837000c052800013009800070007000500370076
:108380003000070003003700e80f510001003a00f9
:108390004100070000000600881f78008041eb00c4
:1083a000030078005ceab7000004eb0098518800f5
:1083b000a85188008851880018538800030078006d
:1083c0005deab7008152800011409000f2c7b3000f
:1083d0000240600090409800504aaa0081528000fc
:1083e000114090000240600090409800504aaa005e
:1083f000d1528000114090000240600090409800ef
:108400008001fd0038eab7008001fd00d8518800e6
:108410008001fd0045eab70046eab70047eab70029
:108420008001fd00570007000801780088007800ef
:1084300030002000b0fa07002efe07004f0478003d
:1084400000000600d0a5200021c0b30090cf10008e
:1084500002003a0094fe07000e0037005d6aef004c
:10846000620ae2000a003a0081c0b300d0528000e4
:108470000148780001a72000d05280001100980028
:10848000c1c8b300d05280001140980001003700ed
:10849000622aef0000000600881f780080528000ea
:1084a000104090004600de0061046000504aaa00bf
:1084b00000528000e80f50000a003a0072cabf0064
:1084c0000080fb00b02488009604e2000300320024
:1084d0000001200000528800020037004000200008
:1084e00000528800d0a5200011c0b30090cf10002a
:1084f00016003a0080a7200081528000900098006a
:1085000037fe0700c0a5200021c0b30090cf1000a7
:1085100004003a0041c8b300805280001140980026
:10852000160037000804e00004003a0081ccb300d4
:1085300080528000114098001000370081c8b300bd
:1085400080528000114098000c003700454ae2003c
:1085500009003d0081a42000914078008180fb004b
:1085600049cabf004800dd00010070000100320070
:108570000000010045eaa9005d6aef004f047800a1
:108580000000060070cabf000046b2003b003a007f
:1085900071cabf000080fb0001002000eb0f5000fb
:1085a000e08f580035003e00006001001a003700df
:1085b0001b00370031003700190037002f0037004b
:1085c0000600370009003700280037000b0037008d
:1085d00008003700140037001d00370038eaa800f3
:1085e000800020000052880024003700bffe0700f2
:1085f0002200370082fe07002000370020a4200060
:10860000b0518800380aa80010c0b3003aeab70099
:1086100038eaa80019003700e2fe0700170037000b
:10862000170007001500370074cabf000080fb0068
:1086300061a5200001004000b0518800380aa80060
:1086400010c0b3003aeab70038eaa8000b003700c0
:1086500038eaa80074cabf000080fb0061a52000b2
:1086600022a7200012f07800040037000001eb0080
:108670008000eb00200020001ffa07000000060029
:108680000200fa00889fbe0072cabf00e14f50008e
:108690000b003a0070cabf007f40600008003a003b
:1086a00038eaa80071cabf00e34f500003003a0047
:1086b00010002000e0518800010037003c2aef0044
:1086c000724ae20093003a0070cabf007f40600027
:1086d000e24f50008f003a0074cabf006f40600044
:1086e0008c00320074cabf006f006000e20f5000bf
:1086f00088003c000152800000022000808f500062
:1087000084003a0038eaa800744ae2000b00350001
:1087100074cabf006f00600000004000a1a42000e8
:1087200060807800d0bf9f0074cabf006f006000f7
:1087300071a6200060c078000a00370074cabf002c
:108740006f0060000000400001a5200060807800fc
:10875000d0bf9f0074cabf006f00600041a6200018
:1087600060c07800004478000808a30004003a00c4
:108770002ff897000024a100a0ff9f0003003700fe
:108780002ff997000224a000a2ff9f00744ae20084
:108790000700350074cabf006f0060000000400091
:1087a000a1a420005fb9970002b07800060037004e
:1087b00074cabf006f0060000000400001a52000e7
:1087c0005fb9970002b0780071cabf00e34f500054
:1087d00015003a005fb997001200e0000d003d005f
:1087e000744ae2000600350074cabf006f006000e2
:1087f00071a62000010040001014a0000500370001
:1088000074cabf006f00600041a620000100400054
:108810001014a0001240900041c8b3000140700045
:10882000104198003b003700e68457002ff897006e
:108830000024a200a0ff9f00dfb897001100e00015
:108840000c003d00114090000074a1009040980081
:10885000dfb89700114090000064a000904098009d
:1088600022002000dfb8970050002000a2f9070086
:1088700003003700114090000064a0009040980071
:108880001924a2000818a30003003a00dfb89700db
:108890001100e00016003d00744ae20006003500b9
:1088a00074cabf006f00600071a620000100400084
:1088b0001014a1000500370074cabf006f006000eb
:1088c00041a62000010040001014a100dfb897006d
:1088d00011409000b043b200904098002200200068
:1088e000dfb897005000200083f90700030037002d
:1088f00011409000b043b2009040980074cabf008d
:108900006f00600000004000a14a2000010040000c
:108910001014a1004f04be000080fa000000060001
:10892000881f780028042000184478000884fb0081
:108930004544de0091028000ff3ffc0000ceb30002
:108940004260b700910288006ae907009102800046
:10895000ff3ffc004544dd0042c0bf007f40600097
:108960000840700042e0b700910288004f04780090
:1089700000000600889fbe008a9fbe000244780067
:10898000990180000a8021000b0020000083fb0079
:108990008180fb0002c0200002b1b9000202450044
:1089a000e0824d004a09dd0002014200e0814a00f8
:1089b0004019de00920188006331b90082804000d6
:1089c000ca08dd000a80400046e90700f34f540062
:1089d00008003200f44f5400090032008040eb00e0
:1089e000f24f540008003a0064006000c200de004c
:1089f0000500370068006000c300de000200370099
:108a000070006000c400de00990188000180fb0056
:108a10004f05be004f04be0000000600881f78000e
:108a20008a9fbe00980180000a8021000b00200070
:108a30000083fb008180fb0002c0200002b1b9006e
:108a400002024500e0824d004a09dd0002014200b9
:108a5000e0814a004019de009201880020042400d1
:108a6000003b88006331b90082804000ca08dd0005
:108a70000a804000800078002fe90700a8ff070067
:108a8000980188004f05be004f04780000000600e2
:108a9000889fbe008a9fbe00804478009b018000b2
:108aa0000004eb00040037000060fe000804e8004a
:108ab000e30f54000600320032c1b3008840780052
:108ac00009407800abff0700e10f5000f6ff3200cd
:108ad00006802100070020000981fb0000c0200063
:108ae0000090b90000024300e0824b004a40dd00e4
:108af00000004200e0804a004008de00900188004b
:108b00006311b900020144004a11dd00060441006e
:108b10008004eb000a4020008984e8000884e80013
:108b200008007800efe807008a8f540002003a003e
:108b30008004eb0002003700e14f4000f6ff3a00ee
:108b40009b018800090078004f05be004f04be005d
:108b5000000006002f02b000889fbe008a9fbe0062
:108b60008c9fbe008e1f7800004778009001800027
:108b7000b0af9f008004eb00040037000060fe00ef
:108b80008904e800e38f54000700320032c1b300cb
:108b9000894078000e40780076ff0700e10f500012
:108ba000f6ff32000f003700bfa897009101880040
:108bb000e669a80030002000ee0037003fa99700ca
:108bc00092018800e629a80010002000e900370083
:108bd000bfa9970093018800e6e9a8007000200073
:108be000e40037000905e800e30f550008003a00eb
:108bf0000005eb00060037000a05e800e30f55000a
:108c000001003a000005eb00890f5500ebff320030
:108c100042c1b3008a4078000e40780055ff07003b
:108c20000000e000f4ff3200048021000500200075
:108c30000e81fb0000c020000090b9006103b80065
:108c4000a6b79f00b7b79f004a50dd006103b80088
:108c500086b79f0097b79f002fb39700bfb39700c9
:108c60000400430085804b000fb397009fb397002b
:108c70000000430081804b004008de009001880026
:108c80006311b90082057800020045004a00dd004a
:108c9000f0af9f00040440000e4078007cff070006
:108ca0000000e00001003200e649a800e6c9bf006c
:108cb000a0d79f00e609a90010002400003b88000f
:108cc000880078000080eb009be8070088007800af
:108cd000f00f200094e807000884e8000e80fb00f5
:108ce000f20f20000280b900e0af9f008046eb0049
:108cf0001c0020000280210003002000c2af9f0062
:108d0000d3af9f002fb29700bfb29700040241007b
:108d100085824900c4b79f00d5b79f000fb3970065
:108d20009fb397000600420087804a004008de009b
:108d300001002000e0b79f00f1b79f00ffab970054
:108d40008283430087bf9f00098045004a00dd0001
:108d5000cfa8970001004000a0af9f008d85fb00c9
:108d60006fa997000b00410005010700e609ab0061
:108d700002003200e609a9000700370088007800e9
:108d80006de80700880078000b00780066e80700af
:108d90000884e8000c06e8008d46e80000c2b30035
:108da00080cf56000d003a006e0037008800780032
:108db0000080eb0060e8070088007800f00f2000da
:108dc00059e807000884e8000c06e80000042000c9
:108dd000800f560005003200f4ff3700f00320003a
:108de000800f560002003c00dcff37000dc2b300cc
:108df000cbfe070000c2b30080cf56000200320055
:108e00000006eb00d5ff37002fd09700e6e9b7004a
:108e1000efb09700910188000fb997000284e80035
:108e2000080078002fe80700804578000886e800f1
:108e30008fb99700638041002ce807000004780098
:108e4000e1cf4500100032000b80fb006faa9700b5
:108e500004004000ca000700800f54005cff3a0085
:108e60000c04e8000c0078001ee80700804578003c
:108e70000c86e800080078001ce807000004780071
:108e8000e1cf4500f0ff3a00ffaa97004fab9700f3
:108e9000068642004a48dd004fb19700dfb19700d7
:108ea00000004100e08049004008de009001880099
:108eb0002fa897000de80700800578002fa89700dd
:108ec00008e807000a00e00001003a008b05e8000e
:108ed000e38f550002003600e629a8000044a100f7
:108ee000efb19700930188000084fb008c007800ac
:108ef000080078000ce807008c0078000b00780070
:108f00000de8070030002400003b880084fe0700c5
:108f10000c007800f3e70700800f540004003a00cb
:108f20000c007800f1e70700808f55000500320043
:108f30003faa970094018800e6e9a800700020008d
:108f40000c003700894078000e407800b3fe07001f
:108f5000bfaa970095018800e609d500610060006e
:108f600004003700f0032000800f56009fff3c00f4
:108f70008eff37004f0778004f06be004f05be003a
:108f80004f04be002f02b10000000600889fbe0003
:108f90008a9fbe008c9fbe008e1f78009b018000c0
:108fa00000802100010020004008de0090018800c0
:108fb0000007eb006066b8008e4478000004eb0008
:108fc000040037000060fe000804e800e30f5400ce
:108fd0000700320042c1b3008840780009407800a1
:108fe00064fe07000000e000f6ff320004003700d6
:108ff0009b018800e629a800100020005b003700d4
:109000000045eb000004eb0032c1b300884078005b
:109010000940780057fe07000000e00001003a0018
:109020000a45e8000804e800e30f5400f6ff3a00a0
:109030000a04e00015003a008a40780009407800f0
:1090400076fe070002802100030020000200460097
:1090500083804e004008de0090018800300024002c
:10906000003b880002044600880078000000eb0006
:10907000b1e7070088007800300f2000aae707005a
:1090800027fe07009b01880030003700e14f5500a4
:1090900002003a009b0188002c003700e24f550087
:1090a00026003a0032c1b3008a40780009407800b7
:1090b00030fe07000000e00006003a0032c1b300b5
:1090c00080407800094078002afe07000000e00098
:1090d0000f0032000004eb00010037000804e80034
:1090e0000845780032c1b300884078000940780014
:1090f00020fe0700e10f500002003a00e30f540089
:10910000f6ff3a008a40e800e3cf500001003a0041
:109110008040eb000940780040fe070009407800dd
:109120005bfe07000000e00002003a000940780002
:1091300088fe07009b018800040037009b0188001f
:10914000e6c9a80060002000080037000e07e8000c
:1091500000c02000010020000c0640008d86480061
:10916000e20f570094ff3a000000eb004f07780031
:109170004f06be004f05be004f04be0000000600b3
:10918000889fbe008a9fbe0000047800f003200084
:10919000800f540003003600e6a9a8000080eb0011
:1091a000350037004545de009b0180008004eb0060
:1091b000040037000060fe008904e800e38f5400db
:1091c0000700320032c1b300894078000a407800bd
:1091d000e8fd0700e10f5000f6ff32000400370001
:1091e0009b018800e6c9a8000080eb002200370040
:1091f00006802100070020000a81fb0000c020003b
:109200000091b9004a4add0002004300e0804b00b3
:1092100004004000e08048004008de009001880023
:109220000601410002024200e13f2000848040002c
:10923000092020007f056400010478000100780007
:1092400028e707008880e9008904e900030032006c
:109250008a0f500005003200f7ff3700e609a8002a
:109260009b0188000080eb000300370008007800b5
:109270001ee707009b0188004f05be004f04be009b
:1092800000000600e4874700889fbe008a9fbe005a
:109290008c9fbe008e1f7800800478000104780047
:1092a000f0032000808f500003003600e6a9a800dc
:1092b0005000200074003700c50dde009c018000c6
:1092c00030002400003b88000005eb008b4678004e
:1092d000040037000060fe000a05e800e30f5500b7
:1092e0000700320032c1b3008a4078000b4078009a
:1092f000a0fd0700e10f5000f6ff32000400370028
:109300009c018800e6c9a800600020005e003700cc
:10931000048021000500200000c0200000d8b90012
:1093200000014200e0814a004a50dd000000410097
:10933000e08049004008de00900188006358b900d1
:10934000000045004a00dd00040740006a9e20003e
:109350001a4578000800780089ff0700890f50003f
:1093600008003a00304f80006100600005003a00bc
:109370009c0188000005fd00e6e9b7000005fd003e
:10938000410037000a007800e6e9b7000d40780098
:10939000bffd0700800578000000e00004003a00ef
:1093a0009c018800e689a8004000200036003700b4
:1093b0000e0540008a00780009007800dee607000c
:1093c0007f0064008a007800d7e6070054fd07009c
:1093d00000000000000000000a007800c3e607005b
:1093e00080f79f000ff097008080fb000980fb0052
:1093f000808f5000040032009c018800e6e9a8003c
:1094000070002000200037000a007800b5e6070051
:1094100080f79f000ff097008080fb007f006400c2
:10942000808f5000040032009c018800e6e9a8000b
:1094300070002000140037000a00e800abe60700c7
:109440004880de0080f79f000ff097008080fb00cf
:109450004848de00808f5000040032009c018800e4
:10946000e6e9a8007000200007003700e03f200078
:10947000808f550002003a000d407800b5fd0700ce
:109480009c0188000000eb004f0778004f06be00eb
:109490004f05be004f04be004f00b10000000600a3
:1094a000004178008081fb000080fb00010020006b
:1094b00062005000e0805800d4072000840f500064
:1094c000e08f5800c1003e000060010081003700bd
:1094d0008300370086003700880037008b00370094
:1094e0008d0037009000370092003700750037007c
:1094f000b600370092003700940037007300370041
:1095000096003700980037009c0037009e00370017
:10951000a5003700ad003700ac003700ab003700c6
:10952000aa003700a9003700a8003700a7003700bd
:10953000a6003700a5003700a4003700a3003700bd
:10954000a2003700a1003700a00037009f003700bd
:109550009e0037009d0037009c0037009b003700bd
:109560009a003700990037009800370097003700bd
:1095700096003700950037009400370093003700bd
:109580009200370091003700900037008f003700bd
:109590008e0037008d0037008c0037008b003700bd
:1095a0008a003700890037008800370087003700bd
:1095b00086003700850037008400370083003700bd
:1095c0008200370081003700800037007f003700bd
:1095d0007e0037007d0037007c0037007b003700bd
:1095e0007a003700790037007800370077003700bd
:1095f00076003700750037007400370073003700bd
:109600007200370071003700700037006f003700bc
:109610006e0037006d0037006c0037006b003700bc
:109620006a003700690037006800370067003700bc
:1096300066003700650037006400370063003700bc
:109640006200370061003700600037005f003700bc
:109650005e0037005d0037005c0037005b003700bc
:109660005a003700590037005800370057003700bc
:1096700056003700550037005400370053003700bc
:109680005200370051003700500037004f003700bc
:109690004e0037004d0037004c0037004b003700bc
:1096a0004a003700490037004800370047003700bc
:1096b0004600370045003700440037003d003700c2
:1096c0003f003700c00120007c0037004009200027
:1096d0007a003700606629001080fb0077003700b1
:1096e00060662900104090000080fb007300370086
:1096f000806629001080fb0070003700806629001a
:10970000104090000080fb006c003700a06629002c
:109710001080fb0069003700a0662900104090000f
:109720000080fb0065003700706729001080fb0097
:1097300062003700806729001080fb005f0037005f
:10974000006629001080fb005c00370000662900dd
:10975000104090000080fb005800370090b7840054
:109760001080fb005500370091b7840040c9b3005a
:10977000114040000080fb0050003700a0b784007b
:109780001080fb004d00370091b78400a0b7840023
:109790009140780010c0400041c9b3000140400032
:1097a0000080fb0045003700b0b784001080fb004c
:1097b00042003700e8c9bf000080fb003f003700cf
:1097c000e9c9bf000080fb003c003700f34f5100a7
:1097d0000a00360094b784009480fb007480400037
:1097e000808f51000a003d000280fb000000420013
:1097f00040e897000080fb003000370090b78400fd
:109800009080fb0074804000808f51000b00350079
:10981000a4b784001480fb00008140007400410064
:10982000808f51000b003d0001805100000042007c
:1098300040e897000080fb0020003700a0b78400bc
:109840001080fb000101400074004100808f510036
:109850000b003500b4b784001480fb008000410089
:1098600074804000808f51000b003d000280510049
:109870000000420040e897000080fb000f00370026
:10988000b0b784001080fb0082004000748040006c
:10989000808f51000800350078804000808f510093
:1098a00005003d000180510081652900614078007c
:1098b0000080fb00010037000000eb000000060004
:1098c000881f7800a0aa2a00404f88000044eb00bf
:1098d00008407800f2fe0700e8c9b600e8e9b700e2
:1098e0000840e800eefe0700e9c9b600e9e9b70064
:1098f000404f80000000e00004003d0000004000f8
:109900000000a000404f8800020037000000400027
:10991000404f880008c4e800e0c7b300804f5400ff
:0c992000ebff3a004f0478000000060046
:020000040000fa
:102e400042c0bf0001ceb300014060008000eb0033
:102e500022003200cfc0bf0082cfb300024060002a
:102e60000004a000cfe0b700832480006424800029
:102e700015248000e109200091407800c608de009a
:102e8000e18060000000eb0080248800602488005e
:102e9000102488008ec0a9008284a80000012000b0
:102ea000002488009ec0a8000040fe00cfc0bf00e4
:102eb00002406000cfe0b700c608dd009ec0bf0042
:102ec0000064a100014070009ee0b70083248800e8
:102ed0006424880015248800110020000100780077
:102ee000000006001080ba00000006001000ba00c2
:102ef00000000600801f78000500fc00500520003f
:102f0000303b8800a00a2000303b880061e7a80021
:102f1000000000000000000061e7af00feff370086
:102f20004f007800000006008088bb00000006000b
:102f300080c8bb00000006008008bb00000006003f
:082f40008048bb000000060000
:020000040000fa
:102f4800e209000004000000020000000100040083
:102f58000000000000080000e2010000000000007e
:102f6800e60900000200000000000000300a00002e
:102f78005000000000000000000a000030000000bf
:102f880000000000e8090000020000000000000046
:042f98000000000035
:020000040000fa
:102f9c00f03fb1000180b10006003500ee030900de
:102fac0000000000403fb1000180b100fbff3d007c
:102fbc001000b000203fb000020035000080090076
:082fcc000000000000000600f7
:020000040000fa
:082fd4000a00000000140000d7
:020000040000fa
:082fdc000040da000000fe00d5
:00000001FF
