:020000040000fa
:080000000004040000000000f0
:020000040000fa
:1000080004140000081400000c1400001014000070
:1000180014140000bc140000bc140000bc14000040
:10002800181400001c140000201400002414000000
:10003800bc140000281400002c1400003014000028
:1000480034140000381400003c1400004014000070
:100058004414000048140000bc140000bc14000044
:100068004c140000501400005414000058140000f0
:100078005c140000bc140000bc140000bc14000098
:10008800bc14000060140000641400006814000030
:100098006c14000070140000741400007814000040
:1000a8007c14000080140000bc140000bc14000084
:1000b800bc14000084140000881400008c14000094
:1000c800bc14000090140000bc140000bc14000014
:1000d800bc14000094140000bc140000bc14000000
:1000e800bc140000981400009c140000bc1400000c
:1000f800bc140000bc140000bc140000bc140000b8
:10010800bc140000bc140000bc140000bc140000a7
:10011800bc140000bc140000a0140000bc140000b3
:10012800bc140000a4140000a8140000ac140000c3
:10013800bc140000bc140000bc140000bc14000077
:10014800b0140000bc140000bc140000bc14000073
:10015800bc140000b4140000bc140000bc1400005f
:10016800bc140000bc140000bc140000bc14000047
:10017800bc140000bc140000b8140000bc1400003b
:10018800bc140000bc140000bc140000bc14000027
:10019800bc140000bc140000bc140000bc14000017
:1001a800bc140000bc140000bc140000bc14000007
:1001b800bc140000bc140000bc140000bc140000f7
:1001c800bc140000bc140000bc140000bc140000e7
:1001d800bc140000bc140000bc140000bc140000d7
:1001e800bc140000bc140000bc140000bc140000c7
:0801f800bc140000bc1400005f
:020000040000fa
:04020800941300004b
:020000040000fa
:04020c009413000047
:020000040000fa
:040210009413000043
:020000040000fa
:04021400941300003f
:020000040000fa
:04021800941300003b
:020000040000fa
:04021c009413000037
:020000040000fa
:040220009413000033
:020000040000fa
:04022400941300002f
:020000040000fa
:04022800941300002b
:020000040000fa
:04022c009413000027
:020000040000fa
:040230009413000023
:020000040000fa
:04023400941300001f
:020000040000fa
:04023800941300001b
:020000040000fa
:04023c009413000017
:020000040000fa
:040240009413000013
:020000040000fa
:04024400941300000f
:020000040000fa
:04024800941300000b
:020000040000fa
:04024c009413000007
:020000040000fa
:040250009413000003
:020000040000fa
:0402540094130000ff
:020000040000fa
:0402580094130000fb
:020000040000fa
:04025c0094130000f7
:020000040000fa
:0402600094130000f3
:020000040000fa
:0402640094130000ef
:020000040000fa
:0402680094130000eb
:020000040000fa
:04026c0094130000e7
:020000040000fa
:0402700094130000e3
:020000040000fa
:0402740094130000df
:020000040000fa
:0402780094130000db
:020000040000fa
:04027c0094130000d7
:020000040000fa
:0402800094130000d3
:020000040000fa
:0402840094130000cf
:020000040000fa
:0402880094130000cb
:020000040000fa
:04028c0094130000c7
:020000040000fa
:0402900094130000c3
:020000040000fa
:0402940094130000bf
:020000040000fa
:0402980094130000bb
:020000040000fa
:04029c0094130000b7
:020000040000fa
:0402a00094130000b3
:020000040000fa
:0402a40094130000af
:020000040000fa
:0402a80094130000ab
:020000040000fa
:0402ac0094130000a7
:020000040000fa
:0402b00094130000a3
:020000040000fa
:0402b400941300009f
:020000040000fa
:0402b800941300009b
:020000040000fa
:0402bc009413000097
:020000040000fa
:0402c0009413000093
:020000040000fa
:0402c400941300008f
:020000040000fa
:0402c800941300008b
:020000040000fa
:0402cc009413000087
:020000040000fa
:0402d0009413000083
:020000040000fa
:0402d400941300007f
:020000040000fa
:0402d800941300007b
:020000040000fa
:0402dc009413000077
:020000040000fa
:0402e0009413000073
:020000040000fa
:0402e400941300006f
:020000040000fa
:0402e800941300006b
:020000040000fa
:0402ec009413000067
:020000040000fa
:0402f0009413000063
:020000040000fa
:0402f400941300005f
:020000040000fa
:0402f800941300005b
:020000040000fa
:0402fc009413000057
:020000040000fa
:040300009413000052
:020000040000fa
:04030400941300004e
:020000040000fa
:04030800941300004a
:020000040000fa
:04030c009413000046
:020000040000fa
:040310009413000042
:020000040000fa
:04031400941300003e
:020000040000fa
:04031800941300003a
:020000040000fa
:04031c009413000036
:020000040000fa
:040320009413000032
:020000040000fa
:04032400941300002e
:020000040000fa
:04032800941300002a
:020000040000fa
:04032c009413000026
:020000040000fa
:040330009413000022
:020000040000fa
:04033400941300001e
:020000040000fa
:04033800941300001a
:020000040000fa
:04033c009413000016
:020000040000fa
:040340009413000012
:020000040000fa
:04034400941300000e
:020000040000fa
:04034800941300000a
:020000040000fa
:04034c009413000006
:020000040000fa
:040350009413000002
:020000040000fa
:0403540094130000fe
:020000040000fa
:0403580094130000fa
:020000040000fa
:04035c0094130000f6
:020000040000fa
:0403600094130000f2
:020000040000fa
:0403640094130000ee
:020000040000fa
:0403680094130000ea
:020000040000fa
:04036c0094130000e6
:020000040000fa
:0403700094130000e2
:020000040000fa
:0403740094130000de
:020000040000fa
:0403780094130000da
:020000040000fa
:04037c0094130000d6
:020000040000fa
:0403800094130000d2
:020000040000fa
:100800000fa120000ebf20000e0188000000000094
:10081000000020000000e000020032000001200083
:100820002002880014000700590007000000e000c3
:1008300003003a00203721000100200002003700a9
:100840000000200001002000810f70000100320034
:1008500014000700000020000000e0000200320049
:10086000000002000000000046120200000000002c
:100870000040da000000fe004440a900200c2000e7
:100880000000e0000300320000002000a00188000a
:100890004440a800000006008a1f78008b1f7800e3
:1008a0000000060091018800800478000000eb0041
:1008b0001a003700e284440032a0b4009905ba005f
:1008c000e284440032a0b4009906ba00e2844400f5
:1008d00032a0b4000006eb00476fde00fd07b20057
:1008e000636ce10003003a00ebff07000000eb003f
:1008f0000a003700606ce10004003a00005deb0084
:100900008b05e900fdff3e00040037006168e1004f
:10091000010032000086eb000b00070019c7ba0087
:100920001905ba000e04e00003003a000a00e000d6
:10093000e0ff3a0000000600fe07b2009e018800ba
:100940008a047800f5ff3700395dba008b05e900ad
:100950000c003200295dba008b05e9000800320066
:100960000c00e00003003a00e284440032a0b4002e
:10097000f5ff370019ddba008b05e900faff3a00f0
:100980008904e800e184440032a0b40000000600bd
:1009900000000500800178000200370081597800ce
:1009a0000201e9000200e000fcff3a00000006003e
:020000040000fa
:1009b000120100001001000000000000000800000b
:1009c000d80400003c000000030000000102000009
:1009d00000010000090200002900000001010000e0
:1009e0000080000032090000040000000002000046
:1009f00003000000000000000921000011010000b8
:100a000000010000221d0000000700000581000019
:100a10000340000000010000070500000103000082
:100a20004000000001000000040300000904000071
:100a3000360300004d000000690000006300000064
:100a4000720000006f0000006300000068000000fa
:100a50006900000070000000200000005400000049
:100a60006500000063000000680000006e000000e8
:100a70006f0000006c0000006f00000067000000c5
:100a8000790000002f000000470000002e00000049
:100a90004400000041000000520000002603000056
:100aa000550000005300000042000000200000003c
:100ab0004800000049000000440000002000000041
:100ac000420000006f0000006f0000007400000092
:100ad0006c0000006f000000610000006400000076
:100ae000650000007200000006000000ff09000021
:100af00001a10000011900000129000040150000bb
:100b000000260000ff00000075080000954000006e
:100b10008100000019010000294000009100000040
:100b2000c0000000ea840000148500001885000061
:040b30004e850000ee
:020000040000fa
:100b34000080fb008181fb000001400082814100b4
:100b4400421add0002a020000201420012f0a100be
:100b54000104e00004003a0000004000219320005a
:100b640082307800030037000000400061932000c9
:100b740082307800c219dd0000a02000030040008c
:100b840010e0a000000006001049800081c0b300fe
:100b9400e70f50000a003e008040780040c9bf00c3
:100ba40003003a0010c0b30040e9b7000400370066
:100bb400e14f500002003a0020c0b30040e9b70002
:100bc4000180fb002229b500b0498000014878006b
:100bd400a0952000104a88002009ab0003003200d1
:100be4000104e0000b003a00110037000104e000aa
:100bf4000f003200f0488000124a8000305978001b
:100c0400124a8800f04888008140e900f9ff3a0060
:100c140007003700f0488000124a800030597800fd
:100c2400124a8800f04888008140e900f9ff3a0040
:100c34000000060000c8b3005249e3002a003a004d
:100c440000ccb30020e9b70055c9bf00e24f500003
:100c540009003200e34f500014003200e14f50000d
:100c640020003a00804d2800f04888002001200030
:100c7400104988001c00370054c9bf000080fb00e5
:100c8400000040002159280061007800f0488800e5
:100c94002041900021922000824878003041900049
:100ca40031922000824878000f00370054c9bf00f9
:100cb400e24f500009003e0054c9bf000080fb0011
:100cc400000040004159280061007800f048880085
:100cd4001080fb0010498800030037002069ef00f2
:100ce400010037002069ef00000006005a69ef0098
:100cf4005b69ef0052c9bf007f006000e10f500044
:100d04000b003200e20f50000b0032000000e00044
:100d14001d003a0020e9a8005a09a80020498000d3
:100d2400e10f500018003a005a29a80016003700b5
:100d340020e9a8001400370020e9a8005649e20081
:100d44000600350056c9bf006f0060000000400077
:100d540021932000e10078000500370056c9bf0048
:100d64006f0060000000400061932000e100780003
:100d74000040280091006000808f500002003a007b
:100d840010c0b3005ae9b70020e9ab0005003200f7
:100d9400a0952000f04888002009a80020c0b300d6
:100da40022e9b70000000600aa24ab000d003200bf
:100db400e04980001041900001c8b300814f510008
:100dc40007003a00b14980001141900041c8b300c6
:100dd400814f510002003a00e8c0400011409800e1
:100de400aa24a9000008200050248800000006005e
:100df400881f7800b0498000100478004e44de005b
:100e04006144640040498000e80f50000a003a0041
:100e140054c9bf000080fb00b02488009604e2009f
:100e2400030032000001200040498800020037001e
:100e3400400020004049880041c9bf00e14f5000f4
:100e440015003a00a1952000b049800011009800d7
:100e54004dff070040c9bf00e24f500004003a00b4
:100e640041c8b300b0498000114098001600370013
:100e74000804e00004003a0081ccb300b0498000cb
:100e8400114098001000370081c8b300b0498000b9
:100e9400114098000c0037002d49e20009003d0084
:100ea40001932000914078008180fb0031c9bf008c
:100eb4004800dd00008070000100320000000100e5
:100ec4002de9a9004169ef004f04780000000600f5
:100ed4002629ef000001eb008000eb004007200012
:100ee400a60507008284a9000001200000248800d0
:100ef400000006008284a80000012000502488001d
:100f040010002000304988000001eb008000eb0055
:100f140050072000990507000000060054c9bf00cf
:100f2400e14f50000b003a0052c9bf007f406000ff
:100f340008003a0020e9a80053c9bf00e34f50005d
:100f440003003a0010002000204988000100370007
:100f54002429ef005449e2006f003a0052c9bf004f
:100f64007f406000e24f50006b003a0056c9bf005a
:100f74006f4060006800320056c9bf006f00600017
:100f8400e10f500064003c00000220002809e30047
:100f940061003a0020e9a8005649e2000a00350041
:100fa40056c9bf006f00600000004000219320007c
:100fb400e100780056c9bf006f006000a2942000d1
:100fc400624178000900370056c9bf006f00600015
:100fd4000000400061932000e100780056c9bf0082
:100fe4006f00600082942000624178005649e2005c
:100ff4000600350056c9bf006f00600000004000c5
:1010040023932000813178000500370056c9bf00c2
:101014006f0060000000400063932000813178007d
:1010240053c9bf00e34f500016003a001100e0001e
:101034000f003d005649e2000700350056c9bf00c5
:101044006f006000a2942000e24178000314a00025
:10105400037178000600370056c9bf006f006000b6
:1010640082942000e24178000314a0000371780008
:101074001141900040c8b3000040710090409800b6
:10108400250037000218a30002003a001100e00016
:1010940017003d005649e2000700350056c9bf005d
:1010a4006f006000a2942000e24178000314a100c4
:1010b400037178000600370056c9bf006f00600056
:1010c40082942000e24178000314a10003717800a7
:1010d40011409000b047b2000064a0009040980016
:1010e40022002000500020002405070004003700df
:1010f40011409000b047b2000064a00090409800f6
:1011040056c9bf006f00600000004000a14a2000e3
:10111400010040001014a10000000600881f7800a0
:1011240020e9a800ac24ef0008a020000201200060
:101134008000eb000800780015fe07009424a80046
:101144004869ef004a69ef004969ef004b69ef0015
:101154003a69ef009424a90064004400b04988006f
:10116400e8498800f849880054c9bf002ae9b70053
:1011740003003a00000120004049880006003700bf
:1011840012002000a192200010002000fb040700a0
:1011940000022000404988004f0478000000060047
:1011a40052c9bf000046b2003d003a0053c9bf0017
:1011b4000080fb008000eb00eb0f5000e08f580034
:1011c40037003e00006001001a0037001b003700a2
:1011d40033003700190037003100370006003700ac
:1011e400090037002a0037000b00370008003700d9
:1011f400140037001e00370020e9a80080002000fa
:1012040040498800260037008afe07002400370082
:10121400c2ff070022003700a0922000f048880097
:101224002009a80010c0b30022e9b70020e9a800f3
:101234001b003700adfe07001900370037ff070019
:101244001700370061952000914078008180fb00f1
:10125400a093200000804000f04888002009a800e6
:1012640010c0b30022e9b70020e9a8000c00370041
:1012740020e9a80056c9bf000080fb00a19320000c
:1012840042952000124178008270780004003700f3
:101294000001eb008000eb0020002000b7040700f1
:1012a400000006009ec0a9000080eb0070248800a6
:1012b40050248800aa24ef00ac24ef00a624ef00f9
:1012c400a824ef008644a900f009200080248800a7
:1012d4006024880082c4a9008804a80000a020001b
:1012e4004800de00c0248800002aef00022aef0034
:1012f400042aef00062aef00082aef000a2aef006a
:101304000c2aef000e2aef009424a8009624ef0084
:1013140094a4a9009424a9008a64ab0009003200b3
:1013240080002000502488008a64ab00fdff3a004e
:101334002069ef002d69ef000040eb002ee9b700b3
:101344002fe9b70010002000704a8800804a880006
:101354001c29ef001829ef002629ef003229ef009d
:101364004869ef004a69ef003829ef003429ef009b
:101374004969ef004b69ef0040a02000b0498800a4
:10138400d0002000502588002095200010508800af
:1013940080c0b30000eab70040c8b30001eab70058
:1013a4002a69ef002829ef0000000600889fbe008c
:1013b4008a1f780000457800814478000984fb0086
:1013c4000838a300030032008040eb000a40780094
:1013d400d7fd07000828a3000300320011c0b300a2
:1013e4000a407800d2fd07000a85fb000a05450083
:1013f400a04a200009707d004f0578004f04be000c
:10140400000006000104e000050032000080fb003b
:101414000000400061932000e100780004003700e0
:101424000080fb000000400021932000e1007800d0
:101434000000eb000100e0000d00320011409000bc
:101444000064a200904098009200980083487800bd
:10145400114090000044b200904098001141900067
:1014640080c8b300004071009040980001007800eb
:10147400000006000004e0000c003a0081c0b30044
:10148400f049800001487800f0498000219520004f
:1014940011009800c1c8b30011409800e8c0500082
:1014a400b0498000114098000b0037008180fb0098
:1014b4000080fb0000004000008040004200dd008e
:1014c40001a02000008040001041900041c8b300fa
:1014d40081407100114098000000060094a4ab0004
:1014e4000f0032000080fb000000400061932000e8
:1014f40000804000900078001102be000204200029
:1015040003002000040261008002eb008488be0016
:10151400100078001002be0002186a0003906a00ee
:10152400000006004e09e20019003a0010002000f5
:10153400704a88005009e20015003a00804a880089
:1015440041c9bf00e24f500006003a00b049800094
:101554000048eb0081ccb300b049800011409800f2
:101564000b003700e14f500009003a004629ef0014
:1015740081c0b300f049800001487800f049800040
:10158400219520001100980001c8b3001140980073
:1015940000000600e049800090417800e1922000bc
:1015a400914078008180fb002fc9bf004800dd0016
:1015b400008070008380fb00808f500001003600a3
:1015c400804178008380fb00010050002ee9b700c1
:1015d4004800de002fe9b7000304e0000f003200ea
:1015e4008000eb00b2922000124178000281fb00df
:1015f4002cc9bf004800dd0000007100a295200046
:1016040062d878002be9b7004800de002ce9b70067
:101614008100e80081cf5100f2ff3e00e1922000fa
:10162400914078008180fb002fc9bf004800dd0095
:10163400008070001100320081c0b300f0498000c6
:1016440001487800a1952000f0498000110098001d
:10165400e049800010e8a30004003a0081ccb30004
:10166400f0498000114098001800370081c8b30089
:10167400f0498000114098001400370081c0b30085
:10168400f049800001487800f0498000219520004d
:101694001100980041c8b300114098000193200044
:1016a400914078008180fb0031c9bf004800dd0013
:1016b4000080700001003200000001002de9a90043
:1016c4001a09e20001003a0096ff07000000060034
:1016d40041c9bf00e24f500002003a00adff0700cd
:1016e4000d0037004169ef004609e20009003a00a5
:1016f40081c0b300f049800001487800f0498000bf
:101704002195200011009800c1c8b3001140980031
:10171400010037004629ef00000006001c29ef00f5
:101724001829ef0041c9bf00e24f500009003a00f8
:1017340081c0b300f049800001487800f04980007e
:10174400a19520001100980081ccb30011409800ad
:101754001600370081952000914078008180fb00bd
:1017640059c9bf004800dd00008070002209e30071
:101774000700360058c9bf000080fb009195200087
:1017840091407800c808dd0081007000114988008c
:10179400fdfc0700a1952000b049800011009800cd
:1017a40081ccb300b04980001140980000000600cd
:1017b40094a4a90020e9ab0016003a002d49e200e8
:1017c40008003d0020c0b30041e9b7001809e20059
:1017d40001003a00d1ff07005029ef004e29ef0025
:1017e4002800370081c0b300f04980000148780028
:1017f400f04980002195200011009800c1c8b30071
:1018040011409800e8c05000b04980001140980091
:101814001c0037005249e2000b003d0010c0b30029
:1018240041e9b7001c09e20001003a00bbff0700d0
:101834005029ef004e29ef001a09e20011003a0086
:1018440038ff07000f00370020c0b30041e9b7009c
:1018540081c0b300f049800001487800f04980005d
:10186400219520001100980041c8b3001140980050
:101874005029ef004e29ef001a09e20001003a0056
:1018840028ff0700000006004069ef001a29ef0056
:101894001c29ef001829ef004629ef004169ef00e9
:1018a400b0498000904090000174a100114098005c
:1018b400b0498000904090000174a100114098004c
:1018c400f0498000904090000174a10011409800fc
:1018d4002069ef002229ef002d69ef000040eb00a2
:1018e4002ee9b7002fe9b7002dfe07000001eb0039
:1018f4008000eb003000200020030700acff07004d
:1019040000000600d0c2b3004ce9b70044c9bf00d0
:1019140080007800b10fb2001a003a00c00fb20084
:1019240001a0200001004000e0498800f04988003f
:1019340002c023001001610001402300810f510007
:101944000e003a002195200001027800e881400051
:101954001001900092587800100190000201e800f4
:1019640012009800838f5000f9ff3a00e04980008c
:1019740014009800c4ff07000500370054ff070057
:1019840003003700e88f500001003a0018fd0700fb
:1019940000000600889fbe008a1f7800404980002e
:1019a4000000e00012003a009424ef008c24ef00c1
:1019b400a624ef00a824ef008644a900f009200023
:1019c400802488006024880082c4a9009404ab00a9
:1019d40004003a009404a8000060fe009404ab00e4
:1019e400fcff32001000200040498800020037004c
:1019f400e10f500008003a0094c4ab0006003a001e
:101a04008aa4ef008c24ef008c04a8008c84a80026
:101a140020002000404988008084ab00050032008b
:101a24008284ab00030032000001200000248800ff
:101a340027fd07008824ab00020032008ec0a900f5
:101a44004f0037008a04ab00070032008c04ab005f
:101a54000500320013fe07004000200040498800c2
:101a640010002000502488008a84ab000500320056
:101a74008c84ab00030032001efd0700000120002f
:101a8400502488008a44ab000e0032008c44ab0022
:101a940004003200120020008000eb003007200018
:101aa400b602070040002000502488004cc9bf0043
:101ab400030032000040e9004ce9b70001003a009d
:101ac40098fe07008ae4ab00030032008ce4ab000c
:101ad40001003200b4fc07008a24ab000900320084
:101ae4008c24ab0007003200120020008000eb00c1
:101af400f0ff2700a10207008ea4ef0020002000c1
:101b04005024880040498000e30f500002003e004a
:101b14008ec0a9001a0037008c64ab001700320095
:101b240048c0b300890020002a0720008a64ab0063
:101b340003003a00110037008a64ab000f00320042
:101b44009024800044e9b7000080fb004400de00dc
:101b540045e9b7005924880002003a0069ff0700ec
:101b6400040037000001eb00419420000a007800d3
:101b7400820207000844e900efff3a008ec0a90082
:101b84004f0578004f04be0000000600f08f2f00c0
:101b9400c422b600c022b600c5a2a900c9a2a900e9
:101ba4002c23ef00c0e2a800c882a8006820a80087
:101bb4000028ef000228ef0010002000204f8800ca
:101bc40093c2b300428c20000349780001802a00ac
:101bd40031468800c828ef0012e9b700ca68ef0050
:101be4000ea9ef0010a9ef000c69ef000000060039
:101bf4002ca3ef0044a7a800802520000000e900e2
:101c0400e10f4000fdff3a00f08f2f004427b6009b
:101c1400a4fd0700ddff0700000006001609e2002e
:101c240002003a0000712200b04888001609ed0055
:101c3400b04888008824ab00120032000000e000a5
:101c44004b003a0000102000c402b6000000e90076
:101c54004f00de004800dd00211680000180a10055
:101c64008100700021168800c402d4000020b20054
:101c7400211680000190a1008100700021168800c7
:101c84003b003700414980000100e00003003a00b6
:101c9400c502a900c522a90035003700e18f500014
:101ca40003003a00c502a800c522a800300037008e
:101cb400e28f500003003a00c502a800c522a90023
:101cc4002b003700e48f500003003a00c502a9003e
:101cd400c522a80026003700f08f50000d003a00fe
:101ce4000000e00022003a0000102000c402b60008
:101cf4000000e9004f00de004800dd0021168000ee
:101d04000180a1008100700021168800c522a9006d
:101d14001700370002022000828f500014003a009e
:101d24000000e00012003a0000102000221680009b
:101d3400820060008100e900cf08de00c808dd00f1
:101d4400221680000280a100028170002216880001
:101d5400c402b6000000e9004f00de004900dd00c7
:101d6400211680000190a1008100700021168800d6
:101d740000000600b28c2000124178000281fb00b2
:101d84008001eb004a18dd00c610de0081007000ff
:101d94004a10dd0022042400023b88000181fb007c
:101da400920188000081eb000208bb001000fc00d7
:101db40050052000303b8800a00a2000303b8800fa
:101dc40061e7a800000000000000000001002800f6
:101dd400023b800002806000fdff3a000000060024
:101de40030002400003b88000cc9bf001d003200f5
:101df400c28c2000010028000082fb008002eb005e
:101e040076488000874880000402530085825b0086
:101e140095018800040078001208bb00920190002c
:101e24000388bb001000fc0050052000303b8800f4
:101e3400a00a2000303b880061e7a80000000000f1
:101e440000000000033b800003806000fdff3a00b7
:101e54000cc9ed000ce9b700640141000004e00086
:101e6400e5ff3a0061c7a900000006009301800065
:101e740091018800000178001282ba008400780081
:101e84001200ba009301880000000600889fbe007b
:101e94008a9fbe00ca48e20023003a001040800036
:101ea4000000e000020032001000e000690135008b
:101eb400004080000000e00005003a003088200067
:101ec400318020000204200000014100030037009b
:101ed4001000e000f9ff3d005e013700d068780093
:101ee400820f5000fdff3a0003c4b3004288200073
:101ef4008040eb0010c0b30042fd070000408800a2
:101f040010c0b300cae8b7003084200002042000e7
:101f1400000141008040eb0001687800820f50000e
:101f2400fdff3a004b01370004c8bf00e54f5000e5
:101f34007d00320006003e00e34f50004a003200ac
:101f44005b003e00e24f500042013a0006003700b9
:101f5400e74f5000d8003200d2003900e84f50005b
:101f64003c013a003501370020c0b30044e8b70013
:101f740083c3b300528420000349780046e8b700c5
:101f840010c0b30047e8b7000040eb0048e8b700d2
:101f940042c1b30094842000024a78004ae8b700a2
:101fa4004be8b70000c02e00f1ff2f00324680003e
:101fb4004346800002004000838048004ce8b7009c
:101fc4004801de0002427800d3842000844978006e
:101fd400e2842000014978004808de004fe8b70099
:101fe40050e8ef001249e20012003a0030c0b3009a
:101ff40050e8b7000040eb0082cfb3001485200006
:10200400024a7800b4cab3002385200084497800ca
:1020140053e8b70054e8b70083c0b30052852000ea
:102024000349780056e8b70057e8b70058e8b70006
:1020340059e8ef00104080000000e0000200320088
:102044001000e0000301350003c4b3004284200003
:1020540011c0b30001407800eafc0700104088007a
:10206400ca68ef00fb0037000548e20007003a00a9
:10207400a0c2b300c4e8b70084bf2a003446880075
:10208400c828ef001269ef000700370090c2b300c0
:10209400c4e8b70000802a0030468800c828ef0052
:1020a40010c0b30012e9b700ca68ef00e9003700b6
:1020b40000002200cc02b6000000e9004f00de0060
:1020c4004d00dd006116800001d0a1008100700088
:1020d4006116880050c0b300cbe8b700c4c8bf0085
:1020e4000080fb000000e800e50f50000b00340006
:1020f40020ff070027fe0700cb48ec00cbe8b70021
:102104000080fb00418c2000914078008180fb001e
:102114008100e800810f5000f5ff350061c7a90078
:10212400ca68ef00cb00370000402000c402b600ac
:102134000000e9004f00de004a00dd0021168000a7
:1021440001a0a10081007000211688007048800061
:1021540081488000e10f4000e08f480010003a0001
:1021640052802000124178000281fb00638020002d
:1021740093417800c819dd000300710072802000cb
:10218400124178000281fb00838020009341780093
:10219400c819dd00830071007048880081488800f8
:1021a40052802000124178000281fb0063802000ed
:1021b40093417800c819dd0003007100728020008b
:1021c400124178000281fb00838020009341780053
:1021d400c819dd00830071007248800083488000c4
:1021e400820f5000838f58002c003a0009c8bf00aa
:1021f400e14f5000290036000044eb00c98c200058
:102204008a032000c1902000914078000181fb00e6
:10221400820141000080fb00000055004f01de00f8
:10222400000041000080d1000881fb000200400052
:1022340064004000000040004280200062427800b8
:102244000482fb0000004100104090004800dd00c3
:102254000000720080b479000140e8000ce9b70086
:10226400724880008348800061014100e081490098
:102274007248880083488800fc4f500001003a00ef
:10228400d7fe07000844e80009c8bf008080fb00af
:102294008100d100814f5400daff3900ca68ef0091
:1022a4006c003700cefe07000ea9ef0010a9ef0066
:1022b400ca68ef0067003700104080000000e000ab
:1022c400020032001000e0006200350000402000ef
:1022d400c402b6000000e9004f00de004a00dd0041
:1022e4002116800001a0a100810070002116880041
:1022f40070c0b30044e8b700528020001241780057
:102304000281fb006380200093417800c819dd003e
:102314000300710072802000124178000281fb00ea
:102324008380200093417800c819dd008300710088
:1023340045e8b7004801de000242780063842000cb
:102344008449780072842000014978004808de003e
:1023540048e8b70009c8bf0049e8b700e14f50009a
:102364002e0036000044eb004a842000f90f2000c0
:102374000881fb008001eb005480200014427800a7
:102384000482fb006580200095427800c82add00a5
:102394000500720074802000144278000482fb005f
:1023a4008580200095427800c82add0085007200ef
:1023b4000200400083804800acfe07000883fb0055
:1023c40094802000144278000482fb000402d100af
:1023d4008482fb00850353000702b0008783430017
:1023e40087034500894b6000c805de009b439800c5
:1023f40081816400050053001002b0000000400019
:102404000000450009c86100c818de0011409800aa
:1024140008c4e800884f5200d5ff3e0003c4b3004f
:102424004284200011c0b30001407800f5fb07008e
:1024340010408800ca68ef00060037009424ef00bb
:102444000080eb00000000000000e900fdff3a00fe
:102454000000fe004f05be004f04be000000060051
:10246400e409e20001003200ecfd0700404980006d
:10247400ff0f5000030036008824ab0001003a002f
:1024840082fe0700000006002c23ef00c0e2a80033
:10249400c882a8006820a8000000eb00000000002b
:1024a4000000e800e10f4000fcff3a00c2e2ab008c
:1024b40005003200300820004007b6000200320058
:1024c40000140400000000004027ef00f08f2f00ec
:1024d400c422b600c022b600c5a2a900c9a2a900a0
:1024e400c3fd0700c422ef002afd0700dcff07003c
:1024f4000060fe00fcff370000000600000006003c
:10250400000006000000060000000600d1c1b30070
:1025140010c0b300a5fb070003c4b3004288200029
:102524008040eb0010c0b300b6fb070000408800f9
:102534000000060020498000e10f50000e003a0020
:1025440030498000e10f50000b003a008824a900b4
:102554002629ef0000e120000000e900feff3a0018
:102564009444a800807020000000e900feff3a00b7
:102574001429ef009444a90000000600e10f500064
:1025840003003200e30f500004003a000200370059
:10259400deff0700010037000200070010002000e2
:1025a4000000060052c9bf007f406000e14f5000a8
:1025b4004a003a005649e20048003a0053c9bf00b5
:1025c400e64f500018003a0055c9bf0011c2b300cd
:1025d400814f5000040032008140e800814f5000d8
:1025e40011003a000a0037002ac9bf00e14f500029
:1025f4000d003a00c04f2800f048880090002000e9
:102604001049880000ccb30020e9b7000600370069
:1026140040572800f0488800d00120001049880065
:1026240000ccb30020e9b700219520009140780048
:102634000146b20000c2b30080cf500027003a0028
:1026440053c9bf00e34f50001700320003003e009f
:10265400e24f500021003a0005003700ea4f5000d5
:102664000a003200eb4f50001c003a0015003700fe
:10267400209e2000f04888001000200010498800a7
:1026840010ccb30020e9b7001400370000c8b30031
:1026940020e9b7005195200091407800209e200049
:1026a400014878000d003700309e2000f048880073
:1026b400100020001049880010c8b30020e9b700ba
:1026c4000600370000c8b30020e9b7004195200098
:1026d40091407800309e20000148780000000600f8
:020000040000fa
:1026e40018090000ca00000000000000000a0000f1
:1026f4001000000000000000e209000002000000d9
:1027040000000000000800001801000000000000a4
:10271400e4090000020000000200000001000000c3
:0427240000000000b1
:020000040000fa
:082728000040da000000fe0091
:020000040000fa
:102800000004040000000000941304000000000015
:102810009413040000000000941304000000000062
:102820009413040000000000941304000000000052
:102830009413040000000000941304000000000042
:102840009413040000000000941304000000000032
:102850009413040000000000941304000000000022
:102860009413040000000000941304000000000012
:102870009413040000000000941304000000000002
:1028800094130400000000009413040000000000f2
:1028900094130400000000009413040000000000e2
:1028a00094130400000000009413040000000000d2
:1028b00094130400000000009413040000000000c2
:1028c00094130400000000009413040000000000b2
:1028d00094130400000000009413040000000000a2
:1028e0009413040000000000941304000000000092
:1028f0009413040000000000941304000000000082
:102900009413040000000000941304000000000071
:102910009413040000000000941304000000000061
:102920009413040000000000941304000000000051
:102930009413040000000000941304000000000041
:102940009413040000000000941304000000000031
:102950009413040000000000941304000000000021
:102960009413040000000000941304000000000011
:102970009413040000000000941304000000000001
:020000040000fa
:020000040001f9
:0457f00033ff000083
:020000040000fa
:020000040001f9
:0457f400c0fc0000f5
:020000040000fa
:020000040001f9
:0457f8008f99000085
:020000040000fa
:020000040001f9
:0457fc00643e000007
:00000001FF
