:020000040000FA
:1000000000040400000000000414000008140000B4
:100010000C1400001014000014140000BC140000A4
:10002000BC140000BC140000181400001C140000D4
:100030002014000024140000BC1400002814000048
:100040002C14000030140000341400003814000098
:100050003C14000040140000441400004814000048
:10006000BC140000BC1400004C140000501400002C
:1000700054140000581400005C140000BC1400006C
:10008000BC140000BC140000BC140000601400008C
:1000900064140000681400006C1400007014000068
:1000A00074140000781400007C1400008014000018
:1000B000BC140000BC140000BC1400008414000038
:1000C000881400008C140000BC1400009014000080
:1000D000BC140000BC140000BC1400009414000008
:1000E000BC140000BC140000BC14000098140000F4
:1000F0009C140000BC140000BC140000BC140000E0
:10010000BC140000BC140000BC140000BC140000AF
:10011000BC140000BC140000BC140000BC1400009F
:10012000A0140000BC140000BC140000A4140000C3
:10013000A8140000AC140000BC140000BC140000A3
:10014000BC140000BC140000B0140000BC1400007B
:10015000BC140000BC140000BC140000B414000067
:10016000BC140000BC140000BC140000BC1400004F
:10017000BC140000BC140000BC140000BC1400003F
:10018000B8140000BC140000BC140000BC14000033
:10019000BC140000BC140000BC140000BC1400001F
:1001A000BC140000BC140000BC140000BC1400000F
:1001B000BC140000BC140000BC140000BC140000FF
:1001C000BC140000BC140000BC140000BC140000EF
:1001D000BC140000BC140000BC140000BC140000DF
:1001E000BC140000BC140000BC140000BC140000CF
:1001F000BC140000BC140000BC140000BC140000BF
:10020000FFFFFF00FFFFFF004C1300004C13000036
:100210004C1300004C1300004C1300004C13000062
:100220004C1300004C1300004C1300004C13000052
:100230004C1300004C1300004C1300004C13000042
:100240004C1300004C1300004C1300004C13000032
:100250004C1300004C1300004C1300004C13000022
:100260004C1300004C1300004C1300004C13000012
:100270004C1300004C1300004C1300004C13000002
:100280004C1300004C1300004C1300004C130000F2
:100290004C1300004C1300004C1300004C130000E2
:1002A0004C1300004C1300004C1300004C130000D2
:1002B0004C1300004C1300004C1300004C130000C2
:1002C0004C1300004C1300004C1300004C130000B2
:1002D0004C1300004C1300004C1300004C130000A2
:1002E0004C1300004C1300004C1300004C13000092
:1002F0004C1300004C1300004C1300004C13000082
:100300004C1300004C1300004C1300004C13000071
:100310004C1300004C1300004C1300004C13000061
:100320004C1300004C1300004C1300004C13000051
:100330004C1300004C1300004C1300004C13000041
:100340004C1300004C1300004C1300004C13000031
:100350004C1300004C1300004C1300004C13000021
:100360004C1300004C1300004C1300004C13000011
:100370004C1300004C1300004C1300004C13000001
:100380004C130000FFFFFF00FFFFFF00FFFFFF0017
:10039000FFFFFF00FFFFFF00FFFFFF00FFFFFF0069
:1003A000FFFFFF00FFFFFF00FFFFFF00FFFFFF0059
:1003B000FFFFFF00FFFFFF00FFFFFF00FFFFFF0049
:1003C000FFFFFF00FFFFFF00FFFFFF00FFFFFF0039
:100800000FA120000EBF20000E0188000000000094
:10081000000020000000E000020032000001200083
:100820002002880014000700590007000000E000C3
:1008300003003A00A032210001002000020037002E
:100840000000200001002000810F70000100320034
:1008500014000700000020000000E0000200320049
:1008600000000200000000000A1202000000000068
:100870000040DA000000FE004440A900200C2000E7
:100880000000E0000300320000002000A00188000A
:100890004440A800000006008A1F78008B1F7800E3
:1008A0000000060091018800800478000000EB0041
:1008B0001A003700E284440032A0B4009905BA005F
:1008C000E284440032A0B4009906BA00E2844400F5
:1008D00032A0B4000006EB00476FDE00FD07B20057
:1008E000636CE10003003A00EBFF07000000EB003F
:1008F0000A003700606CE10004003A00005DEB0084
:100900008B05E900FDFF3E00040037006168E1004F
:10091000010032000086EB000B00070019C7BA0087
:100920001905BA000E04E00003003A000A00E000D6
:10093000E0FF3A0000000600FE07B2009E018800BA
:100940008A047800F5FF3700395DBA008B05E900AD
:100950000C003200295DBA008B05E9000800320066
:100960000C00E00003003A00E284440032A0B4002E
:10097000F5FF370019DDBA008B05E900FAFF3A00F0
:100980008904E800E184440032A0B40000000600BD
:1009900000000500800178000200370081597800CE
:1009A0000201E9000200E000FCFF3A00000006003E
:1009B000120100001001000000000000000800000B
:1009C000D80400003C000000030000000102000009
:1009D00000010000090200002900000001010000E0
:1009E0000080000032090000040000000002000046
:1009F00003000000000000000921000011010000B8
:100A000000010000221D0000000700000581000019
:100A10000340000000010000070500000103000082
:100A20004000000001000000040300000904000071
:100A3000360300004D000000690000006300000064
:100A4000720000006F0000006300000068000000FA
:100A50006900000070000000200000005400000049
:100A60006500000063000000680000006E000000E8
:100A70006F0000006C0000006F00000067000000C5
:100A8000790000002F000000470000002E00000049
:100A90004400000041000000520000002603000056
:100AA000550000005300000042000000200000003C
:100AB0004800000049000000440000002000000041
:100AC000420000006F0000006F0000007400000092
:100AD0006C0000006F000000610000006400000076
:100AE000650000007200000006000000FF09000021
:100AF00001A10000011900000129000040150000BB
:100B000000260000FF00000075080000954000006E
:100B10008100000019010000294000009100000040
:100B2000C0000000EA840000148500001885000061
:100B30004E8500000080FB008181FB000001400029
:100B400082814100421ADD0002A020000201420021
:100B500012F0A1000104E00004003A00000040008F
:100B6000219320008230780003003700000040000D
:100B70006193200082307800C219DD0000A02000BF
:100B80000300400010E0A0000000060010498000B3
:100B900081C0B300E70F50000A003E00804078009B
:100BA00040C9BF0003003A0010C0B30040E9B700DD
:100BB00004003700E14F500002003A0020C0B300AB
:100BC00040E9B7000180FB002229B500B049800050
:100BD00001487800A0952000104A88002009AB0049
:100BE000030032000104E0000B003A00110037005E
:100BF0000104E0000F003200F0488000124A80003B
:100C000030597800124A8800F04888008140E90095
:100C1000F9FF3A0007003700F0488000124A8000D0
:100C200030597800124A8800F04888008140E90075
:100C3000F9FF3A000000060000C8B3005249E30083
:100C40002A003A0000CCB30020E9B70055C9BF0024
:100C5000E24F500009003200E34F50001400320010
:100C6000E14F500020003A00804D2800F0488800F5
:100C700020012000104988001C00370054C9BF0023
:100C80000080FB000000400021592800610078002E
:100C9000F04888002041900021922000824878008E
:100CA0003041900031922000824878000F003700D8
:100CB00054C9BF00E24F500009003E0054C9BF00B4
:100CC0000080FB00000040004159280061007800CE
:100CD000F04888001080FB001049880003003700AE
:100CE0002069EF00010037002069EF0000000600D6
:100CF0005A69EF005B69EF0052C9BF007F006000D6
:100D0000E10F50000B003200E20F50000B003200E8
:100D10000000E0001D003A0020E9A8005A09A800E0
:100D200020498000E10F500018003A005A29A8001D
:100D30001600370020E9A8001400370020E9A800B9
:100D40005649E2000600350056C9BF006F0060003A
:100D50000000400021932000E100780005003700EA
:100D600056C9BF006F006000000040006193200082
:100D7000E10078000040280091006000808F500062
:100D800002003A0010C0B3005AE9B70020E9AB00F6
:100D900005003200A0952000F04888002009A80036
:100DA00020C0B30022E9B70000000600AA24AB006F
:100DB0000D003200E04980001041900001C8B300EE
:100DC000814F510007003A00B14980001141900065
:100DD00041C8B300814F510002003A00E8C0400012
:100DE00011409800AA24A90000082000502488007F
:100DF00000000600881F7800B049800010047800C9
:100E00004E44DE006144640040498000E80F500019
:100E10000A003A0054C9BF000080FB00B0248800DB
:100E20009604E200030032000001200040498800DF
:100E300002003700400020004049880041C9BF003F
:100E4000E14F500015003A00A1952000B049800004
:100E5000110098004DFF070040C9BF00E24F50004D
:100E600004003A0041C8B300B04980001140980026
:100E7000160037000804E00004003A0081CCB300FB
:100E8000B0498000114098001000370081C8B300BD
:100E9000B0498000114098000C0037002D49E20055
:100EA00009003D0001932000914078008180FB0003
:100EB00031C9BF004800DD00008070000100320031
:100EC000000001002DE9A9004169EF004F047800FE
:100ED000000006002629EF000001EB008000EB0077
:100EE00040072000820507008284A900000120003D
:100EF00000248800000006008284A8000001200071
:100F00005024880010002000304988000001EB00C8
:100F10008000EB0050072000750507000000060068
:100F200054C9BF00E14F50000B003A0052C9BF0046
:100F30007F40600008003A0020E9A80053C9BF00C4
:100F4000E34F500003003A001000200020498800C1
:100F5000010037002429EF005449E2006F003A00F5
:100F600052C9BF007F406000E24F50006B003A0062
:100F700056C9BF006F4060006800320056C9BF000C
:100F80006F006000E10F500064003C000002200090
:100F90002809E30061003A0020E9A8005649E20070
:100FA0000A00350056C9BF006F0060000000400015
:100FB00021932000E100780056C9BF006F00600057
:100FC000A2942000624178000900370056C9BF0092
:100FD0006F0060000000400061932000E100780095
:100FE00056C9BF006F006000829420006241780003
:100FF0005649E2000600350056C9BF006F00600088
:101000000000400023932000813178000500370064
:1010100056C9BF006F0060000000400063932000CD
:101020008131780053C9BF00E34F500016003A00E9
:101030001100E0000F003D005649E20007003500B6
:1010400056C9BF006F006000A2942000E241780002
:101050000314A000037178000600370056C9BF00D2
:101060006F00600082942000E24178000314A00029
:10107000037178001141900040C8B3000040710036
:1010800090409800250037000218A30002003A00A3
:101090001100E00017003D005649E200070035004E
:1010A00056C9BF006F006000A2942000E2417800A2
:1010B0000314A100037178000600370056C9BF0071
:1010C0006F00600082942000E24178000314A100C8
:1010D0000371780011409000B047B2000064A00096
:1010E00090409800220020005000200000050700DA
:1010F0000400370011409000B047B2000064A00027
:101100009040980056C9BF006F006000000040008A
:10111000A14A2000010040001014A10000000600B8
:10112000881F780020E9A800AC24EF0008A0200068
:10113000020120008000EB000800780015FE070087
:101140009424A8004869EF004A69EF004969EF005C
:101150004B69EF003A69EF009424A9006400440051
:10116000B0498800E8498800F849880054C9BF00A0
:101170002AE9B70003003A00000120004049880036
:101180000600370012002000A1922000100020006D
:10119000D704070000022000404988004F0478006F
:1011A0000000060052C9BF000046B2003D003A00F0
:1011B00053C9BF000080FB008000EB00EB0F500024
:1011C000E08F580037003E00006001001A00370031
:1011D0001B0037003300370019003700310037009B
:1011E00006003700090037002A0037000B003700DF
:1011F00008003700140037001E00370020E9A8005F
:101200008000200040498800260037008AFE070041
:1012100024003700C2FF070022003700A092200000
:10122000F04888002009A80010C0B30022E9B700E8
:1012300020E9A8001B003700ADFE070019003700A9
:1012400037FF0700170037006195200091407800B4
:101250008180FB00A093200000804000F0488800BF
:101260002009A80010C0B30022E9B70020E9A800B7
:101270000C00370020E9A80056C9BF000080FB0021
:10128000A1932000429520001241780082707800DE
:10129000040037000001EB008000EB00200020007C
:1012A00093040700000006009EC0A9000080EB0028
:1012B0007024880050248800AA24EF00AC24EF009A
:1012C000A624EF00A824EF008644A900F00920001E
:1012D000802488006024880082C4A9008804A800B3
:1012E00000A020004800DE00C0248800002AEF0093
:1012F000022AEF00042AEF00062AEF00082AEF0076
:101300000A2AEF000C2AEF000E2AEF009424A8000E
:101310009624EF0094A4A9009424A9008A64AB0049
:101320000900320080002000502488008A64AB004D
:10133000FDFF3A002069EF002D69EF000040EB004F
:101340002EE9B7002FE9B70010002000704A88008E
:10135000804A88001C29EF001829EF002629EF0099
:101360003229EF004869EF004A69EF003829EF00A1
:101370003429EF004969EF004B69EF0040A02000DD
:10138000B0498800D000200050258800209520001A
:101390001050880080C0B30000EAB70040C8B30016
:1013A00001EAB7002A69EF002829EF0000000600D3
:1013B000889FBE008A1F780000457800814478002D
:1013C0000984FB000838A300030032008040EB00D2
:1013D0000A407800D7FD07000828A3000300320068
:1013E00011C0B3000A407800D2FD07000A85FB0057
:1013F0000A054500A04A200009707D004F057800CD
:101400004F04BE00000006000104E00005003200A9
:101410000080FB000000400061932000E1007800A4
:10142000040037000080FB000000400021932000F2
:10143000E10078000000EB000100E0000D00320048
:10144000114090000064A200904098009200980023
:1014500083487800114090000044B200904098000A
:101460001141900080C8B300004071009040980086
:1014700001007800000006000004E0000C003A00C3
:1014800081C0B300F049800001487800F049800035
:101490002195200011009800C1C8B30011409800A8
:1014A000E8C05000B0498000114098000B003700A0
:1014B0008180FB000080FB000000400000804000B5
:1014C0004200DD0001A0200000804000104190009B
:1014D00041C8B3008140710011409800000006002F
:1014E00094A4AB000F0032000080FB00000040001D
:1014F0006193200000804000900078001102BE003F
:101500000204200003002000040261008002EB00BE
:101510008488BE00100078001002BE0002186A0025
:1015200003906A00000006004E09E20019003A002C
:1015300010002000704A88005009E20015003A00AF
:10154000804A880041C9BF00E24F500006003A00BF
:10155000B04980000048EB0081CCB300B049800066
:10156000114098000B003700E14F500009003A008D
:101570004629EF0081C0B300F0498000014878009F
:10158000F0498000219520001100980001C8B300A7
:101590001140980000000600E0498000904178006A
:1015A000E1922000914078008180FB002FC9BF00AC
:1015B0004800DD00008070008380FB00808F5000B9
:1015C00001003600804178008380FB00010050005C
:1015D0002EE9B7004800DE002FE9B7000304E00061
:1015E0000F0032008000EB00B29220001241780020
:1015F0000281FB002CC9BF004800DD000000710023
:10160000A295200062D878002BE9B7004800DE00E0
:101610002CE9B7008100E80081CF5100F2FF3E00C5
:10162000E1922000914078008180FB002FC9BF002B
:101630004800DD00008070001100320081C0B3005E
:10164000F049800001487800A1952000F049800011
:1016500011009800E049800010E8A30004003A005F
:1016600081CCB300F0498000114098001800370089
:1016700081C8B300F0498000114098001400370081
:1016800081C0B300F049800001487800F049800033
:10169000219520001100980041C8B3001140980026
:1016A00001932000914078008180FB0031C9BF0088
:1016B0004800DD00008070000100320000000100E1
:1016C0002DE9A9001A09E20001003A0096FF07007F
:1016D0000000060041C9BF00E24F500002003A007E
:1016E000ADFF07000D0037004169EF004609E20039
:1016F00009003A0081C0B300F04980000148780039
:10170000F04980002195200011009800C1C8B30065
:1017100011409800010037004629EF000000060044
:101720001C29EF001829EF0041C9BF00E24F50000B
:1017300009003A0081C0B300F049800001487800F8
:10174000F0498000A19520001100980081CCB300E1
:1017500011409800160037008195200091407800D4
:101760008180FB0059C9BF004800DD000080700087
:101770002209E3000700360058C9BF000080FB00C3
:101780009195200091407800C808DD00810070002C
:1017900011498800FDFC0700A1952000B049800098
:1017A0001100980081CCB300B0498000114098002E
:1017B0000000060094A4A90020E9AB0016003A003E
:1017C0002D49E20008003D0020C0B30041E9B70008
:1017D0001809E20001003A00D1FF07005029EF008C
:1017E0004E29EF002800370081C0B300F049800087
:1017F00001487800F04980002195200011009800F0
:10180000C1C8B30011409800E8C05000B049800042
:10181000114098001C0037005249E2000B003D00C7
:1018200010C0B30041E9B7001C09E20001003A0012
:10183000BBFF07005029EF004E29EF001A09E20014
:1018400011003A0038FF07000F00370020C0B30036
:1018500041E9B70081C0B300F04980000148780039
:10186000F0498000219520001100980041C8B30084
:10187000114098005029EF004E29EF001A09E200AC
:1018800001003A0028FF0700000006004069EF0051
:101890001A29EF001C29EF001829EF004629EF0054
:1018A0004169EF00B0498000904090000174A100B0
:1018B00011409800B0498000904090000174A10050
:1018C00011409800F0498000904090000174A10000
:1018D000114098002069EF002229EF002D69EF00E8
:1018E0000040EB002EE9B7002FE9B7002DFE0700FE
:1018F0000001EB008000EB0030002000FC0207003C
:10190000ACFF070000000600D0C2B3004CE9B700EE
:1019100044C9BF0080007800B10FB2001A003A003D
:10192000C00FB20001A0200001004000E049880083
:10193000F049880002C0230010016100014023002B
:10194000810F51000E003A0021952000010278001D
:10195000E88140001001900092587800100190003A
:101960000201E80012009800838F5000F9FF3A004E
:10197000E049800014009800C4FF0700050037000C
:1019800054FF070003003700E88F500001003A00C1
:1019900018FD070000000600889FBE008A1F78001F
:1019A000404980000000E00012003A009424EF005B
:1019B0008C24EF00A624EF00A824EF008644A900A1
:1019C000F0092000802488006024880082C4A900D7
:1019D0009404AB0004003A009404A8000060FE00E8
:1019E0009404AB00FCFF3200100020004049880046
:1019F00002003700E10F500008003A0094C4AB0029
:101A000006003A008AA4EF008C24EF008C04A800A2
:101A10008C84A80020002000404988008084AB000E
:101A2000050032008284AB00030032000001200078
:101A30000024880027FD07008824AB000200320044
:101A40008EC0A9004F0037008A04AB0007003200A7
:101A50008C04AB000500320013FE0700400020009C
:101A60004049880010002000502488008A84AB0080
:101A7000050032008C84AB00030032001EFD07001D
:101A800000012000502488008A44AB000E00320080
:101A90008C44AB0004003200120020008000EB00F8
:101AA00030072000920207004000200050248800E8
:101AB0004CC9BF00030032000040E9004CE9B70008
:101AC00001003A0098FE07008AE4AB0003003200F0
:101AD0008CE4AB0001003200B4FC07008A24AB00A8
:101AE000090032008C24AB000700320012002000F5
:101AF0008000EB00F0FF27007D0207008EA4EF00BE
:101B0000200020005024880040498000E30F50004E
:101B100002003E008EC0A9001A0037008C64AB00A2
:101B20001700320048C0B300890020002A072000B7
:101B30008A64AB0003003A00110037008A64AB00EE
:101B40000F0032009024800044E9B7000080FB00C1
:101B50004400DE0045E9B7005924880002003A003D
:101B600069FF0700040037000001EB0041942000EA
:101B70000A0078005E0207000844E900EFFF3A001F
:101B80008EC0A9004F0578004F04BE00000006007B
:101B900030FF2F00CC22B600C822B6002C23EF0065
:101BA000C882A8006820A8000028EF000228EF00E3
:101BB00010002000204F880093C2B300428C200008
:101BC0000349780001802A0031468800C828EF00C8
:101BD00012E9B700CA68EF000EA9EF0010A9EF00E4
:101BE0000C69EF00000006002CA3EF0044A7A8003A
:101BF000802520000000E900E10F4000FDFF3A00D1
:101C0000F08F2F004427B600A7FD0700E0FF070074
:101C1000000006001609E20002003A0000712200EE
:101C2000B04888001609ED00B04888008824AB0051
:101C3000120032000000E0004B003A006016800005
:101C4000640060000000E9004F00DE004200DD009B
:101C5000611680000120A1008100700061168800DB
:101C6000CC02D40068006000611680000130A10041
:101C700081007000611688003B00370041498000F8
:101C80000100E00003003A00CC42A900CC62A900A8
:101C900035003700E18F500003003A00CC42A80025
:101CA000CC62A80030003700E28F500003003A00F9
:101CB000CC42A800CC62A9002B003700E48F500072
:101CC00003003A00CC42A900CC62A80026003700ED
:101CD000F08F50000D003A000000E00022003A00B2
:101CE00060168000640060000000E9004F00DE0024
:101CF0004200DD00611680000120A100810070001B
:101D000061168800CC62A90017003700020220008B
:101D1000828F500014003A000000E00012003A00E8
:101D200060168000640060000000E9004F00DE00E3
:101D30004200DD00611680000120A10081007000DA
:101D40006116880060168000640060000000E900F1
:101D50004F00DE004300DD00611680000130A1006D
:101D6000810070006116880000000600B28C20001F
:101D7000124178000281FB008001EB004A18DD006F
:101D8000C610DE00810070004A10DD00220424002D
:101D9000023B88000181FB00920188000081EB007A
:101DA0000208BB001000FC0050052000303B8800FA
:101DB000A00A2000303B880061E7A8000000000076
:101DC0000000000001002800023B8000028060004B
:101DD000FDFF3A000000060030002400003B8800B0
:101DE0000CC9BF001D003200C28C20000100280079
:101DF0000082FB008002EB0076488000874880006C
:101E00000402530085825B0095018800040078007D
:101E10001208BB00920190000388BB001000FC0078
:101E200050052000303B8800A00A2000303B88008D
:101E300061E7A8000000000000000000033B8000F4
:101E400003806000FDFF3A000CC9ED000CE9B7000B
:101E5000640141000004E000E5FF3A0061C7A90009
:101E600000000600930180009101880000017800C5
:101E70001282BA00840078001200BA009301880030
:101E800000000600889FBE008A9FBE00CA48E2008C
:101E900023003A00104080000000E0000200320001
:101EA0001000E0004E013500004080000000E0001E
:101EB00005003A0030882000318020000204200014
:101EC00000014100030037001000E000F9FF3D0071
:101ED00043013700D0687800820F5000FDFF3A00C0
:101EE00003C4B300428820008040EB0010C0B30060
:101EF00045FD07000040880010C0B300CAE8B700E5
:101F00003084200002042000000141008040EB00EA
:101F100001687800820F5000FDFF3A003001370061
:101F200004C8BF00E54F50007400320006003E00B8
:101F3000E34F50004A0032005B003E00E24F500089
:101F400027013A0006003700E74F5000C600320074
:101F5000C0003900E84F500021013A001A01370053
:101F600020C0B30044E8B70083C3B300528420000C
:101F70000349780046E8B70010C0B30047E8B7004F
:101F80000040EB0048E8B70042C1B3009484200051
:101F9000024A78004AE8B7004BE8B70000C02E00BC
:101FA000F1FF2F00324680004346800002004000CF
:101FB000838048004CE8B7004801DE000242780008
:101FC000D384200084497800E2842000014978000D
:101FD0004808DE004FE8B70050E8EF001249E20081
:101FE00012003A0030C0B30050E8B7000040EB00E8
:101FF00082CFB30014852000024A7800B4CAB3002F
:10200000238520008449780053E8B70054E8B700DE
:1020100083C0B300528520000349780056E8B7001A
:1020200057E8B70058E8B70059E8EF0010408000C3
:102030000000E000020032001000E000E80035007F
:1020400003C4B3004284200011C0B30001407800F3
:10205000EDFC070010408800CA68EF00E000370080
:102060000548E20007003A00A0C2B300C4E8B70088
:1020700084BF2A0034468800C828EF001269EF00A8
:102080000700370090C2B300C4E8B70000802A0000
:1020900030468800C828EF0010C0B30012E9B7002E
:1020A000CA68EF00CE00370050C0B300CBE8B700DD
:1020B000C4C8BF000080FB000000E800E50F50002E
:1020C0000B00340029FF070033FE0700CB48EC006B
:1020D000CBE8B7000080FB00418C200091407800E5
:1020E0008180FB008100E800810F5000F5FF350082
:1020F00061C7A900CA68EF00B900370070488000C6
:1021000081488000E10F4000E08F480010003A0055
:1021100052802000124178000281FB006380200081
:1021200093417800C819DD0003007100728020001F
:10213000124178000281FB008380200093417800E7
:10214000C819DD008300710070488800814888004C
:1021500052802000124178000281FB006380200041
:1021600093417800C819DD000300710072802000DF
:10217000124178000281FB008380200093417800A7
:10218000C819DD0083007100724880008348800018
:10219000820F5000838F58002C003A0009C8BF00FE
:1021A000E14F5000290036000044EB00C98C2000AC
:1021B0008A032000C1902000914078000181FB003B
:1021C000820141000080FB00000055004F01DE004D
:1021D000000041000080D1000881FB0002004000A7
:1021E000640040000000400042802000624278000D
:1021F0000482FB0000004100104090004800DD0018
:102200000000720080B479000140E8000CE9B700DA
:10221000724880008348800061014100E0814900EC
:102220007248880083488800FC4F500001003A0043
:10223000E9FE07000844E80009C8BF008080FB00F1
:102240008100D100814F5400DAFF3900CA68EF00E5
:1022500063003700E0FE07000EA9EF0010A9EF00B1
:10226000CA68EF005E003700104080000000E00008
:10227000020032001000E0005900350070C0B300C9
:1022800044E8B70052802000124178000281FB0030
:102290006380200093417800C819DD0003007100BD
:1022A00072802000124178000281FB0083802000B0
:1022B00093417800C819DD008300710045E8B7003C
:1022C0004801DE00024278006384200084497800DF
:1022D00072842000014978004808DE0048E8B70011
:1022E00009C8BF0049E8B700E14F50002E00360092
:1022F0000044EB004A842000F90F20000881FB0015
:102300008001EB0054802000144278000482FB001E
:102310006580200095427800C82ADD000500720023
:1023200074802000144278000482FB008580200025
:1023300095427800C82ADD00850072000200400046
:1023400083804800C7FE07000883FB0094802000BC
:10235000144278000482FB000402D1008482FB0056
:10236000850353000702B0008783430087034500BD
:10237000894B6000C805DE009B43980081816400A2
:10238000050053001002B0000000400000004500AE
:1023900009C86100C818DE001140980008C4E800B0
:1023A000884F5200D5FF3E0003C4B3004284200092
:1023B00011C0B3000140780013FC070010408800F2
:1023C000CA68EF00060037009424EF000080EB009D
:1023D000000000000000E900FDFF3A000000FE00E0
:1023E0004F05BE004F04BE0000000600E409E200F5
:1023F0000100320007FE070040498000FF0F500037
:10240000030036008824AB0001003A009DFE07005F
:10241000000006002C23EF00C882A8006820A80056
:102420000000EB00000000000000E800E10F4000A9
:10243000FCFF3A00CA82AB00020032000014040024
:10244000000000004027EF0030FF2F00CC22B60034
:10245000C822B600E4FD0700C422EF004EFD0700CD
:10246000E2FF07000060FE00FCFF370000000600EE
:102470000000060000000600000006000000060044
:10248000D1C1B30010C0B300C9FB070003C4B3003F
:10249000428820008040EB0010C0B300DAFB070048
:1024A000004088000000060020498000E10F500035
:1024B0000E003A0030498000E10F50000B003A0056
:1024C0008824A9002629EF0000E120000000E9008F
:1024D000FEFF3A009444A800807020000000E9004C
:1024E000FEFF3A001429EF009444A9000000060002
:1024F000E10F500003003200E30F500004003A00E7
:1025000002003700DEFF070001003700020007006D
:10251000100020000000060052C9BF007F4060008C
:10252000E14F50004A003A005649E20048003A00A4
:1025300053C9BF00E64F500018003A0055C9BF000C
:1025400011C2B300814F5000040032008140E80006
:10255000814F500011003A000A0037002AC9BF001D
:10256000E14F50000D003A00C04F2800F0488800AD
:10257000900020001049880000CCB30020E9B7008B
:102580000600370040572800F0488800D00120009E
:102590001049880000CCB30020E9B7002195200045
:1025A000914078000146B20000C2B30080CF5000D5
:1025B00027003A0053C9BF00E34F50001700320014
:1025C00003003E00E24F500021003A0005003700B2
:1025D000EA4F50000A003200EB4F50001C003A0056
:1025E00015003700209E2000F048880010002000D1
:1025F0001049880010CCB30020E9B7001400370060
:1026000000C8B30020E9B700519520009140780040
:10261000209E2000014878000D003700309E2000E9
:10262000F0488800100020001049880010C8B3004E
:1026300020E9B7000600370000C8B30020E9B70062
:102640004195200091407800309E2000014878009C
:102650000000060018090000CA0000000000000089
:10266000000A00001000000000000000E209000065
:102670000200000000000000000800001801000037
:1026800000000000E4090000020000000200000059
:1026900001000000000000000040DA000000FE0021
:1026A000FFFFFF00FFFFFF00FFFFFF00FFFFFF0036
:1026B000FFFFFF00FFFFFF00FFFFFF00FFFFFF0026
:1026C000FFFFFF00FFFFFF00FFFFFF00FFFFFF0016
:1026D000FFFFFF00FFFFFF00FFFFFF00FFFFFF0006
:1026E000FFFFFF00FFFFFF00FFFFFF00FFFFFF00F6
:1026F000FFFFFF00FFFFFF00FFFFFF00FFFFFF00E6
:10270000FFFFFF00FFFFFF00FFFFFF00FFFFFF00D5
:10271000FFFFFF00FFFFFF00FFFFFF00FFFFFF00C5
:10272000FFFFFF00FFFFFF00FFFFFF00FFFFFF00B5
:10273000FFFFFF00FFFFFF00FFFFFF00FFFFFF00A5
:10274000FFFFFF00FFFFFF00FFFFFF00FFFFFF0095
:10275000FFFFFF00FFFFFF00FFFFFF00FFFFFF0085
:10276000FFFFFF00FFFFFF00FFFFFF00FFFFFF0075
:10277000FFFFFF00FFFFFF00FFFFFF00FFFFFF0065
:10278000FFFFFF00FFFFFF00FFFFFF00FFFFFF0055
:10279000FFFFFF00FFFFFF00FFFFFF00FFFFFF0045
:1027A000FFFFFF00FFFFFF00FFFFFF00FFFFFF0035
:1027B000FFFFFF00FFFFFF00FFFFFF00FFFFFF0025
:1027C000FFFFFF00FFFFFF00FFFFFF00FFFFFF0015
:1027D000FFFFFF00FFFFFF00FFFFFF00FFFFFF0005
:1027E000FFFFFF00FFFFFF00FFFFFF00FFFFFF00F5
:1027F000FFFFFF00FFFFFF00FFFFFF00FFFFFF00E5
:10280000C0140400000000004C360400000000006A
:102810004C360400000000001A35040000000000DF
:1028200020350400000000004C36040000000000C9
:102830004C360400000000004C360400000000008C
:102840004C360400000000004C360400000000007C
:102850004C360400000000004C360400000000006C
:1028600026350400000000004C3604000000000083
:102870004C360400000000004C360400000000004C
:102880004C360400000000004C360400000000003C
:102890004C360400000000004C360400000000002C
:1028A0004C360400000000004C360400000000001C
:1028B000A8350400000000004C36040000000000B1
:1028C0004C360400000000004C36040000000000FC
:1028D0004C360400000000004C36040000000000EC
:1028E0004C360400000000004C36040000000000DC
:1028F0004C360400000000004C36040000000000CC
:102900004C360400000000004C36040000000000BB
:102910004C360400000000004C36040000000000AB
:102920004C360400000000004C360400000000009B
:102930004C360400000000004C360400000000008B
:102940004C360400000000004C360400000000007B
:102950004C360400000000004C360400000000006B
:102960004C360400000000004C360400000000005B
:10297000EE190400000000004C36040000000000C6
:10298000AFE220000E7F22000E0188000000000050
:102990000C000700205B230001002000110007004D
:1029A000000020000000E0000200320000000200F1
:1029B0000000000072230200000000000040DA0066
:1029C0000000FE004440A900E03720000000E000C5
:1029D0000300320000002000A00188004440A8004D
:1029E0000000060091018800800078000000EB00E4
:1029F00015003700E280400032A0B4009101BA0017
:102A0000E280400032A0B4009102BA00E2804000AF
:102A100032A0B4000002EB00472BDE00F507B20045
:102A2000602CE10004003A000059EB008301E9004A
:102A3000FDFF3E00040037006128E1000100320084
:102A40000082EB00040007001101BA000200E00060
:102A5000E8FF3A00000006003159BA008301E9009E
:102A60000C0032002159BA008301E900080032004D
:102A70000400E00003003A00E280400032A0B4000D
:102A8000F5FF370011D9BA008301E900FAFF3A00D7
:102A90008100E800E180400032A0B40000000600A0
:102AA00084E0A900E7416000C419DD00710A20003C
:102AB00091407800F2C8B30082C0600083C070000B
:102AC0008000FD00A7E0B7008000FD006800600006
:102AD0004300DE004700DD004109200091407800FE
:102AE0000174A10080C070000100780094E0B7007C
:102AF000000006000621EF006108880080088800B9
:102B00000000060000088000000006001004B1006C
:102B1000070035009001B100040034007000B100DE
:102B2000030035009001B10001003C0010000500D9
:102B300000000500800078001104B100030035009A
:102B40009101B10001003C000050A000000006000F
:102B50008001EB00040037008301E80090CF1000F3
:102B6000040032000000E800828F5100FAFF3A00B2
:102B70000000EB00000006008001EB0002003700BF
:102B8000817178008301E800828F5100FCFF3A00D8
:102B9000000006000D00000041540000004F00003E
:102BA0004B00000044410000202800004379000051
:102BB0006265000072640000796E0000652000000C
:102BC00028410000445000004D2900002920000049
:102BD0002D20000055530000422000004750000007
:102BE000532F00004D690000576900002049000084
:102BF0006E7400006572000066610000636500008D
:102C0000204200004C200000312E0000303900002E
:102C100020300000352F0000303500002F3200003A
:102C20003500000000000000C1C0000081C10000AC
:102C30004001000001C30000C0030000800200004A
:102C400041C2000001C60000C0060000800700006D
:102C500041C7000000050000C1C5000081C400009C
:102C60004004000001CC0000C00C0000800D0000FA
:102C700041CD0000000F0000C1CF000081CE000058
:102C8000400E0000000A0000C1CA000081CB000015
:102C9000400B000001C90000C009000080080000CE
:102CA00041C8000001D80000C018000080190000D1
:102CB00041D90000001B0000C1DB000081DA0000E8
:102CC000401A0000001E0000C1DE000081DF00008D
:102CD000401F000001DD0000C01D0000801C00003E
:102CE00041DC000000140000C1D4000081D50000C8
:102CF0004015000001D70000C0170000801600003A
:102D000041D6000001D20000C01200008013000074
:102D100041D3000000110000C1D1000081D00000AB
:102D20004010000001F00000C030000080310000C1
:102D300041F1000000330000C1F3000081F2000007
:102D40004032000000360000C1F6000081F70000AC
:102D50004037000001F50000C0350000803400005D
:102D600041F40000003C0000C1FC000081FD0000B7
:102D7000403D000001FF0000C03F0000803E000019
:102D800041FE000001FA0000C03A0000803B000054
:102D900041FB000000390000C1F9000081F800008B
:102DA0004038000000280000C1E8000081E9000070
:102DB0004029000001EB0000C02B0000802A000029
:102DC00041EA000001EE0000C02E0000802F00004C
:102DD00041EF0000002D0000C1ED000081EC00007B
:102DE000402C000001E40000C02400008025000009
:102DF00041E5000000270000C1E7000081E6000077
:102E00004026000000220000C1E2000081E3000033
:102E10004023000001E10000C021000080200000EC
:102E200041E0000001A00000C060000080610000DF
:102E300041A1000000630000C1A3000081A20000C6
:102E40004062000000660000C1A6000081A70000EB
:102E50004067000001A50000C0650000806400001C
:102E600041A40000006C0000C1AC000081AD000076
:102E7000406D000001AF0000C06F0000806E0000D8
:102E800041AE000001AA0000C06A0000806B000093
:102E900041AB000000690000C1A9000081A800004A
:102EA0004068000000780000C1B8000081B900004F
:102EB0004079000001BB0000C07B0000807A000068
:102EC00041BA000001BE0000C07E0000807F00000B
:102ED00041BF0000007D0000C1BD000081BC0000BA
:102EE000407C000001B40000C07400008075000048
:102EF00041B5000000770000C1B7000081B60000B6
:102F00004076000000720000C1B2000081B30000F2
:102F10004073000001B10000C0710000807000002B
:102F200041B0000000500000C190000081910000FD
:102F30004051000001930000C05300008052000087
:102F40004192000001960000C0560000805700002A
:102F50004197000000550000C195000081940000D9
:102F600040540000019C0000C05C0000805D000037
:102F7000419D0000005F0000C19F0000819E000095
:102F8000405E0000005A0000C19A0000819B0000D2
:102F9000405B000001990000C0590000805800000B
:102FA0004198000001880000C048000080490000EE
:102FB00041890000004B0000C18B0000818A0000A5
:102FC000404A0000004E0000C18E0000818F0000CA
:102FD000404F0000018D0000C04D0000804C0000FB
:102FE000418C000000440000C18400008185000085
:102FF0004045000001870000C047000080460000F7
:103000004186000001820000C042000080430000B1
:103010004183000000410000C18100008180000068
:10302000404000001201000000020000000000000B
:10303000000800005F110000010200000300000012
:103040000102000003010000090200002900000045
:1030500001010000008000003209000004000000AF
:10306000000200000300000000050000092100002C
:10307000110100000D010000222B000000070000DC
:10308000058100000340000000010000070500006A
:1030900001030000400000000100000004030000E4
:1030A000090400003E0300004F000000650000001E
:1030B000740000007A00000074000000610000004D
:1030C0006C0000002000000061000000750000009E
:1030D000740000006F0000006D000000610000003F
:1030E00074000000690000006F0000006E00000026
:1030F00020000000280000004300000079000000CC
:103100006200000065000000720000006400000022
:10311000790000006E00000065000000290000003A
:103120003E03000055000000530000004200000074
:1031300020000000410000006E000000640000005C
:10314000720000006F0000006900000064000000D1
:103150002F00000047000000500000005300000056
:103160002F0000004D000000690000005700000023
:103170006900000020000000490000006E0000000F
:10318000740000006500000072000000660000008E
:103190006100000063000000650000000C030000F7
:1031A00056000000310000002E000000300000003A
:1031B0003900000004030000200000000A030000A2
:1031C00047000000500000005300000020000000F5
:1031D00010030000530000006B00000079000000A5
:1031E0006E00000065000000740000002000000078
:1031F00006000000FF09000001A100000115000009
:1032000000260000FF000000750800008501000096
:10321000953F0000190100002940000081020000D4
:1032200085020000953F00001901000029400000C0
:1032300091020000850300009507000009010000CD
:10324000B1020000C0000000249800004E98000069
:103250005298000090980000CE980000DA98000084
:10326000DE980000E89800001F1C00001F1E0000F0
:103270001F1E00001F1F00001E1F00001E1F000059
:103280000E0C00000A1000001214000008160000C6
:103290009EC0A9000080EB007024880050248800A4
:1032A0008000EB0051258800612588002000200067
:1032B00030258800412588008644A900F0092000B7
:1032C000802488006024880082C4A9008804A800A3
:1032D00000C020004800DE00C024880004C0200098
:1032E0006011B8004208DD00040040000288BE0002
:1032F0008100E800E88F5000FAFF3A009424A8000B
:103300009624EF0094A4A9009424A9008AC4BF00C5
:103310000038A30010003200820020008040EB0043
:10332000522488008000FD0028ECB70035ECB7007F
:103330008000FD0036CCBF000100780036ECB700FD
:1033400037CCBF000100780037ECB7008AC4BF005B
:103350000038A300F2FF3A0010002000B06288009D
:10336000C06288000000EB002061880000618800D6
:1033700070618800E3C32000A2C320008000EB003E
:1033800005C5200024C520008119780001197800A6
:1033900001F07A0001707A000000E800E20F5000AE
:1033A000F9FF3A0080C02000F0618800D0002000C2
:1033B00050258800A0C520001060880080C0B300A0
:1033C00000ECB70040C8B30001ECB7000100780082
:1033D00032ECB70081618800000006003600F8007A
:1033E000809FBE00829FBE00849FBE00869FBE005D
:1033F000881F78003400F80000002000A001880039
:1034000080618000E10F500008003A0094C4BF00C2
:103410000068A30005003A008AA4EF008C04A8000D
:103420008C84A800200020008061880080C4BF0038
:103430000048A3000600320082C4BF000048A30079
:103440000300320000012000002488000D03070063
:1034500088C4BF000018A300020032008EC0A9007B
:103460006B0037008AC4BF000008A30009003200C7
:103470008CC4BF000008A3000600320084FF0700D0
:103480009EC0A8004000200080618800100020003D
:10349000502488008AC4BF000048A3000600320000
:1034A0008CC4BF000048A30003003200EB020700F9
:1034B00000012000502488008AC4BF000028A30017
:1034C000090032008CC4BF000028A30004003200B1
:1034D000120020008000EB0030072000A808070041
:1034E00040002000502488008A44E20006003D008D
:1034F000C14820009140780000C8B30080C060003F
:1035000001003200C20207008AC4BF000018A300F5
:103510000A0032008CC4BF000018A300070032006C
:10352000120020008000EB00F0FF27009408070045
:103530008EA4EF00200020005024880080618000CD
:10354000E30F500002003E008EC0A900300037009B
:103550008CC4BF000038A3002C00320048C0B30068
:103560008AC4BF000038A3002800320090248000E5
:103570004CECB7004CCCBF000080FB004400DE00E8
:103580004DECB70080002000502488004CCCBF00D8
:103590000038A3000A003A004DCCBF000080FB00B9
:1035A00021C520000100400010417800E140610089
:1035B0000104A2001004A10010C870000900370027
:1035C0004DCCBF000080FB0001C520000100400081
:1035D00010417800E14061000104A2001004A10044
:1035E00010C870004D4CE20002003A00AE02070025
:1035F000040037000001EB00C1C4200020072000B8
:103600005F0807000844E900D5FF3A008EC0A90012
:103610003400F9004F0478004F03BE004F02BE0093
:103620004F01BE004F00BE003600F900004006000A
:10363000889FBE008A1F780080447800014578008A
:103640000184FB000838A300020032008040EB0038
:10365000E00007000828A3000300320011C0B300F7
:1036600009407800DB0007000980FB0000004000F3
:10367000A14A20000AF078004F0578004F04BE00F0
:103680000000060080427800014378000104E00059
:10369000050032000080FB0000004000E1C3200074
:1036A00060827800040037000080FB0000004000CA
:1036B000A1C32000608278000400E00002003A000C
:1036C000040078001700370012029800034A7800BF
:1036D000144090000044B200104298001440900042
:1036E00081C8B30001407000104298000604E00059
:1036F000060032000580FB0000004000E1C320000E
:10370000010040001024A200050037000580FB00E6
:1037100000004000A1C32000010040001024A200CE
:103720000400780000000600014178000004E00079
:103730000D003A0081C0B30030628000014878007B
:10374000A1C520003062800011009800C1C8B300FC
:103750003062800011409800E8C05000F0618000A5
:1037600011409800100037008080FB0081804000ED
:103770000280FB0080804000C308DD0002C0200002
:10378000028140001240900043C8B3000340700023
:103790001041980040C020008080400011409000FF
:1037A00003407000904098000000060080407800C0
:1037B00094C4BF000058A300170032000181FB0031
:1037C00002014100E0C320000001410092017800A5
:1037D0001300BE0004042000050020000000620069
:1037E000010020008089BE001200780010186A00D5
:1037F00010906A001224A2009200780011409000FC
:103800000044B2009040980092007800114090006F
:103810000440680090409800000006000000EB00A3
:10382000A0248800602488008061880000000600D1
:10383000816180000100E00015003A00A1248800A9
:103840006124880020002000302588004125880060
:103850008644A900F00920008024880060248800A4
:1038600082C4A9009EC0A80094C4BF000008A300A1
:1038700005003A009404A8000060FE0094C4BF0054
:103880000008A300FBFF32001000200080618800C8
:1038900000000600560CE20025003A00100020004F
:1038A000B0628800C16280000100E00020003A00A0
:1038B000C062880049CCBF00E24F500006003A00C9
:1038C000F06180000148780081CCB300F061800095
:1038D000114098001600370049CCBF00E14F50005E
:1038E00013003A004E2CEF0083C0B300206280002A
:1038F00003487800A2C520002062800012009800D2
:1039000041C8B300206280001140980010002000E0
:103910007062880030628000034878003062800066
:1039200012009800E4C050003062800011409800FE
:10393000000006000000EB002061880000618800A4
:1039400049CCBF00E24F50000A003A0081C0B300EA
:10395000306280000148780021C62000306280007B
:103960001100980081CCB3003062800011409800B3
:103970001700370060CCBF000080FB0011C620009C
:1039800091407800C808DD008080700050618000A0
:10399000808F50000700310001C620009140780060
:1039A0008180FB0061CCBF004800DD000100700099
:1039B000506188005F00070021C62000F061800090
:1039C0001100980081CCB300F06180001140980094
:1039D000000006008081FB00038241000180FB00A3
:1039E000000042004300DD0002C020000201400050
:1039F000124090000074A100104198000104E00002
:103A000003003A00A0C32000023278000300370010
:103A100083804100E0C32000823078001240900093
:103A20000064A10010419800E400410011409000A2
:103A30000064A000904098000000060094A4A90033
:103A4000284CE2001B00350051C320009140780053
:103A500000C8B30080C060000900320020C0B3007D
:103A600049ECB700200CE20001003A00B1FF07006A
:103A70000000EB00C0628800B06288002C003700B4
:103A800081C0B3003062800001487800A1C52000E9
:103A90003062800011009800C1C8B300306280001D
:103AA00011409800E8C05000F0618000114098007B
:103AB0001F0037005A4CE2000C003D0010C0B3005C
:103AC00049ECB700240CE20001003A0099FF07001E
:103AD0000000EB00C0628800B0628800220CE200A7
:103AE00013003A006BFF07001100370020C0B3003D
:103AF00049ECB70081C0B300306280000148780013
:103B0000A1C52000306280001100980041C8B300B8
:103B100030628000114098000000EB00C062880015
:103B2000B0628800220CE20001003A0059FF070051
:103B3000000006005061800081C0B300E70F500014
:103B40000C003E005061800080407800484CE2004C
:103B500003003A0010C0B30048ECB700050037007E
:103B600048CCBF00E14F500002003A0020C0B30033
:103B700048ECB7000180FB002A2CB500F061800002
:103B80000148780020C620005062880028CCBF0081
:103B90000008A3001A003200160037000141780027
:103BA0008041EB0050628000316180003158780024
:103BB00050628800316188000241E900834F510062
:103BC00011003200F7FF3700014178008041EB001F
:103BD0005062800031618000315878005062880066
:103BE000316188000241E900834F51000600320034
:103BF000F7FF37000104E000F3FF3A00020037004E
:103C00000104E000E5FF3A000000060020628000A9
:103C10009042780061C32000914078008180FB00D1
:103C200037CCBF004800DD00010070008580FB003C
:103C3000808F50000400360036CCBF0071C32000D6
:103C4000914078008042780061C320009140780064
:103C50008180FB0037CCBF004800DD000100700010
:103C60008580FB000100500061C320009140780076
:103C700036ECB7004800DE0071C3200091407800A8
:103C800037ECB7000504E000190032000042EB00F9
:103C90008001EB0027C62000F60F200031C3200072
:103CA000914078008180FB0034CCBF004800DD00EB
:103CB0000100700063D87B008600600032C32000E2
:103CC000124178008000FD0033ECB7008000FD0059
:103CD0004800DE0041C320009140780034ECB7007A
:103CE0000442E8008301E80084CF5200EBFF3A0071
:103CF00061C32000914078008180FB0037CCBF0079
:103D00004800DD00010070001200320081C0B300E5
:103D1000306280000148780021C6200030628000B7
:103D20001100980020628000104090000068A300FD
:103D300004003A0081CCB30030628000114098004A
:103D40001F00370081C8B300306280001140980026
:103D50001B00370081C0B30030628000014878004A
:103D6000A1C52000306280001100980041C8B30056
:103D7000306280001140980081C32000914078009B
:103D80008180FB0039CCBF004800DD0001007000DD
:103D90000700320081C32000914078008180FB0041
:103DA00039CCBF004800DD000100700000000100B8
:103DB00035ECA900220CE20001003A00B5FE070034
:103DC0000000060028ECA8000000EB006025880039
:103DD000002CEF00022CEF00042CEF00062CEF006B
:103DE000082CEF000A2CEF000C2CEF000E2CEF003B
:103DF000102CEF00122CEF00142CEF00162CEF000B
:103E0000182CEF001A2CEF001C2CEF001E2CEF00DA
:103E10009424A80003C520008040EB0022C52000A8
:103E200001F07900017079000000E800E20F500015
:103E3000FBFF3A000100780042ECB7009424A9008F
:103E400080C02000F061880000C02000206288004F
:103E5000306288005CCCBF0032ECB700324CE2002C
:103E600003003A000001200080618800060037004E
:103E70001200200021C3200010002000400607008F
:103E8000000220008061880000000600A1C520001B
:103E90009140780000C8B30080CF50002B003A005A
:103EA00000CCB30028ECB7005DCCBF00E24F50005F
:103EB00009003200E34F500014003200E14F50007F
:103EC00021003A0020812900306188002001200073
:103ED000506188001D0037005CCCBF000080FB00F3
:103EE0000000400041922900608078003061880025
:103EF00030618000204090002AECB70030618000E3
:103F0000304090002BECB700100037005CCCBF00B5
:103F1000E64F50000A003E005CCCBF000080FB0072
:103F200000004000619229006080780030618800C4
:103F3000306180001080FB00506188000300370072
:103F4000286CEF0001003700286CEF00000006002D
:103F50000040EB0062ECB70063ECB7005ACCBF0046
:103F60007F006000E10F50000B003200E20F5000B4
:103F70000B0032000000E0001D003A0028ECA80011
:103F8000620CA80060618000E10F500018003A0048
:103F9000622CA8001600370028ECA8001400370097
:103FA00028ECA8005E4CE200060035005ECCBF00A5
:103FB0006F00600000004000A1C320006080780016
:103FC000050037005ECCBF006F00600000004000BD
:103FD000E1C320006080780001402800108060006C
:103FE000810F500002003A0010C0B30062ECB7002D
:103FF000284CE20005003D0020C62000306188000A
:10400000280CA80020C0B3002AECB700000006006E
:10401000AAC4BF000018A3000D0032002262800075
:104020009240900000C8B30080CF500007003A00D3
:10403000F06180009040900040C8B30080CF5000F5
:1040400002003A006840400010419800AA24A900EC
:104050000008200050248800000006008284A80088
:1040600000012000502488001000200070618800AA
:104070000001EB008000EB0050072000C0050700A6
:10408000000006008000EB007161880001017800EB
:1040900040072000BA0507008284A9000001200023
:1040A00000248800000006004CCCBF00000178000E
:1040B000B20FB2001D003A004CCCBF00C00FB200DE
:1040C00001C02000010040002062880030628800AA
:1040D000464CAA0010409000C043B20041C3B30058
:1040E000814F50000F003A00A3C5200021628000DC
:1040F000110090001040780000F17900110090004C
:104100000000E800900098000201E800E80F51006C
:10411000F6FF3A00206280001300980009000700B3
:104120000700370035000700050037004CCCBF0002
:10413000B00FB200E80F500001003A004300070042
:1041400000000600881F78008041EB000300780023
:1041500048ECB7000004EB00186188002861880073
:1041600008618800786288000300780049ECB70095
:10417000F161800011409000F2C7B300024060007E
:10418000904098003E4CAA00F161800011409000E0
:1041900002406000904098003E4CAA0031628000CE
:1041A00011409000024060009040980003007800A9
:1041B00028ECB700586188000300780035ECB700A0
:1041C00036CCBF000300780036ECB70037CCBF0018
:1041D0008001FD0037ECB7008001FD005A000700A8
:1041E000080178008800780030002000640507008E
:1041F00012FE07004F0478000000060049CCBF0003
:10420000E24F500002003A0080FE07000E00370027
:10421000496CEF004E0CE2000A003A0081C0B30086
:104220003062800001487800A1C520003062800023
:1042300011009800C1C8B30030628000114098009E
:10424000010037004E2CEF0000000600881F7800A8
:10425000F0618000104090004600DE0061046000C4
:104260003E4CAA0080618000E80F50000A003A002E
:104270005CCCBF000080FB00B02488009604E20004
:104280000300320000012000806188000200370036
:10429000400020008061880049CCBF00E14F500001
:1042A00015003A0020C62000F161800090009800BF
:1042B00020FE070048CCBF00E24F500004003A0047
:1042C00041C8B300F0618000114098001C00370025
:1042D0000804E00004003A0081CCB300F0618000E3
:1042E000114098001600370081C8B300F0618000CB
:1042F0001140980012003700354CE2000F003D00DD
:1043000081C32000914078008180FB0039CCBF0040
:104310004800DD00010070000700320081C320006A
:10432000914078008180FB0039CCBF004800DD005F
:10433000010070000000010035ECA900496CEF009D
:104340004F047800000006005ACCBF000046B200BF
:104350003B003A005BCCBF000080FB000100200066
:10436000EB0F5000E08F580035003E000060010068
:104370001A0037001B0037003100370019003700E2
:104380002F003700060037000900370028003700EB
:104390000B00370008003700140037001D003700FD
:1043A00028ECA800800020008061880024003700ED
:1043B000B6FE07002200370082FE0700200037000B
:1043C00020C3200030618800280CA80010C0B30072
:1043D0002AECB70028ECA80019003700DCFE070023
:1043E0001700370017000700150037005ECCBF002C
:1043F0000080FB0021C420000100400030618800E3
:10440000280CA80010C0B3002AECB70028ECA800C4
:104410000B00370028ECA8005ECCBF000080FB003A
:1044200021C42000C2C5200012F07800040037002B
:104430000001EB008000EB0020002000D00407000A
:10444000000006000200FA00889FBE005CCCBF009E
:10445000E14F50000B003A005ACCBF007F40600093
:1044600008003A0028ECA8005BCCBF00E34F5000E6
:1044700003003A001000200060618800010037004E
:104480002C2CEF005C4CE20093003A005ACCBF00A9
:104490007F406000E24F50008F003A005ECCBF00CA
:1044A0006F4060008C0032005ECCBF006F00600087
:1044B000E10F500088003C00816180000002200074
:1044C000808F500084003A0028ECA8005E4CE20087
:1044D0000B0035005ECCBF006F00600000004000A4
:1044E000A1C32000E0807800D1BF9F005ECCBF0058
:1044F0006F00600021C5200060C078000A0037000E
:104500005ECCBF006F00600000004000E1C32000EF
:10451000E0807800D1BF9F005ECCBF006F006000DC
:1045200001C5200060C07800004478000808A3009E
:1045300004003A002FF897000024A100A0FF9F007C
:10454000030037002FF997000224A000A2FF9F006C
:104550005E4CE200070035005ECCBF006F006000DB
:1045600000004000A1C320005FB9970002B07800AE
:10457000060037005ECCBF006F0060000000400006
:10458000E1C320005FB9970002B078005BCCBF00A8
:10459000E34F500015003A005FB997001200E000A9
:1045A0000D003D005E4CE200060035005ECCBF0011
:1045B0006F00600021C52000010040001014A00021
:1045C000050037005ECCBF006F00600001C5200011
:1045D000010040001014A0001240900041C8B30038
:1045E00001407000104198003B003700E6845700FE
:1045F0002FF897000024A200A0FF9F00DFB89700CB
:104600001100E0000C003D00114090000074A1007A
:1046100090409800DFB89700114090000064A0001F
:104620009040980022002000DFB897005000200042
:104630005304070003003700114090000064A000FD
:10464000904098001924A2000818A30003003A0023
:10465000DFB897001100E00016003D005E4CE2005C
:10466000060035005ECCBF006F00600021C5200051
:10467000010040001014A100050037005ECCBF000F
:104680006F00600001C52000010040001014A1006F
:10469000DFB8970011409000B043B20090409800FE
:1046A00022002000DFB897005000200034040700EB
:1046B0000300370011409000B043B20090409800D2
:1046C0005ECCBF006F00600000004000A14A2000E7
:1046D000010040001014A1004F04BE000080FA0049
:1046E00000000600881F7800350007000004EB007A
:1046F000083A88004EFC07000804E90008003A0068
:10470000CC42AA0080618000FF0F500003003600F9
:1047100088C4BF000018A300010032000800280070
:1047200061BC20009140780030CBB30080CF5000B6
:104730000B003600C66BEF00C402A80000902000FA
:10474000D1032000440907000060FE000090200013
:10475000D1032000400907000060FE00C402A90048
:10476000770007005B0307008B030700824BAB0059
:10477000E1FF3200CC62A80010C0B300AAECB70081
:1047800080C0B300ABECB70068CBBF00E5ECB7006E
:1047900066CBBF00E6ECB7006ECBBF00E7ECB7001E
:1047A000FA050700E8ECB70075CBBF00E9ECB700ED
:1047B00050000700CC62A900824BA900CEFF370051
:1047C0008000EB0001168800000A240040168800D3
:1047D000711688002CA3EF0021168800001020001D
:1047E000601688006960A8006AE0A8006B60A800F5
:1047F000103A8000F00BB200630420007205200024
:10480000217420008348780082487800804878002E
:10481000A8C6BF0001CEB30001406000E040B30075
:10482000A8E6B700C9C6BF00014060000034A00080
:10483000C9E6B700CDC6BF00014060007040B300BC
:10484000CDE6B700103A80000060A000217420007F
:1048500083487800824878008048780045C7BF00C8
:1048600081CFB3000140600045E7B70010C0B3003E
:10487000F4EBB700F5EBB70010C2B300F6EBB700EE
:104880000171220050F92D009AF80700B0FF2F00A7
:1048900083F8070094E0A800020007007CFA0700F4
:1048A00000000600F0FE2F00C422B600C022B600B1
:1048B00030FF2F00CC22B600C822B600C8A2A80044
:1048C000C9E2A800C402A9008000EB00E15E8800F4
:1048D000F15E880010002000005F88003013200087
:1048E00010128800211288000112880041E2A800FD
:1048F0000000060003C4B300A2CA200011C0B30028
:10490000014078005FFB0700F05E88000000E000D7
:1049100006003A00090037000060FE0011409000D8
:104920000004E00005003D00FBFF37008000780038
:10493000104090000004E000F7FF35000000060082
:104940000200FA00889FBE008A9FBE00E00BE200D2
:10495000010032006D03070080618000FF0F5000EE
:10496000D802360088C4BF000018A300D5023A0060
:10497000E05E80000000E000030032001040900084
:104980000004E000CF0235006BCCBF000080FB00CC
:104990000100200061005000E0805800F203200078
:1049A000820F5000E08F5800BD023E000060010001
:1049B0003F0037004E0037006F00370076003700A9
:1049C000B7023700B6023700B5023700950137004D
:1049D000B3023700B20237004B013700FA0037004C
:1049E000AF023700AE023700AD023700A800370033
:1049F0006E003700AA023700A9023700A80237006C
:104A0000A7023700A6023700A5023700A40237002C
:104A1000AE003700A2023700CE003700A0023700F8
:104A20009F023700DE003700DF0037009C023700AE
:104A30009B0237009A02370099023700980237002C
:104A40009702370096023700950237002A02370096
:104A50006D023700920237007D013700C90137002F
:104A60008F0237008E0237008D0237008C0237002C
:104A70008B0237008A02370089023700880237002C
:104A8000870237008602370085023700840237002C
:104A9000830237008202370081023700800237002C
:104AA0007F0237005F023700FB013700FE0137004D
:104AB000285D290010C0B30087020700C0CA20008B
:104AC0003D00090038587800E803B10089FF07006D
:104AD000E20320008000EB00C0CA20001CF80700A1
:104AE000E803B0000000E0006D023A00F1FF37007B
:104AF00020C0B3007802070011C0B30001007800A5
:104B0000ACECB70090C0B300ADECB70080CAB30006
:104B1000AEECB70010C6B300AFECB700D6CBBF0009
:104B20000074A100B0ECB70001007800B1ECB70050
:104B3000F0CBBF00B6ECB7002A050700B7ECB70012
:104B4000240507000080FB00C4ECB700C800DE00AD
:104B50008000FD00C5ECB7008000FD00CAECB70086
:104B600001007800CBECB70040CBB300C8ECB70035
:104B700060FF07004A0237000040EB0064020700B4
:104B800020168000DAECB70060168000DBECB7007E
:104B900058FF070042023700580207006CCCBF00E4
:104BA0000074A100D6EBB700F3FF3700D74BE2004B
:104BB00029003A00834BA90010C0B300D7EBB7001F
:104BC00050012000C05B8800CEF707000074A100F0
:104BD0000074A0007EEBB700B0C62000E05B880048
:104BE000E0C3B3007AEBB7000004EB00085C880078
:104BF0000004FD00D8EBB700D9EBB700DAEBB70043
:104C00000004FD006A8157008840780060B72000EA
:104C100047040700804478000004FD00D8EBB7008B
:104C20000004FD00D904070074EBB700B7ECB7002F
:104C30006FF09700B8ECB7000080FB004600DE0084
:104C4000DAEBB700B3ECB70008007800D7EBB70099
:104C50000904E00012023C0050C1B3002C0207001E
:104C60006ECCBF00B4ECB700D7CBBF00B6ECB7003A
:104C70006FF09700B8ECB7000080FB004600DE0044
:104C8000DAEBB700B3ECB7001AFF070004023700F5
:104C900000C1B300100207000040EB005DEAB7005E
:104CA0005EEAB700C1C6200091407800E1C0600014
:104CB000C208DD00CCC2BF000024A100014070008A
:104CC000CCE2B7000BFF0700F501370090C1B3003D
:104CD00001020700A1CE2000E2C620000F0009005B
:104CE000B2587800FF3FFC006ECCBF00E80207001E
:104CF00014EAB700F8EBB7006FCCBF00E40207007E
:104D000015EAB700F9EBB70070CCBF00E00207006E
:104D100016EAB700FAEBB70072CCBF00DC0207005E
:104D200017EAB700F4EBB70073CCBF00D802070056
:104D300018EAB700F5EBB70074CCBF00D402070047
:104D400019EAB700F6EBB7000000FC00E9FE070027
:104D5000D3013700B0C1B300DF0107006C4CE200A3
:104D600005003D00C0CA200041A120000F0009003D
:104D70003158780008003700C2CA200080BF2000E8
:104D8000030009003059780001CB200042BF200009
:104D900003000900B2587800D6FE0700C0013700B2
:104DA0000000FE00BE013700F0C1B300CA010700D9
:104DB000C0CA2000C1C620003D000900315878005B
:104DC000CCFE0700B6013700C0C0B300C201070027
:104DD000C0CA2000805B8800EAC0B3006D4CE200CE
:104DE000020032006D4CED000045780080C5EB00FC
:104DF0006E4CE200020032006E4CED0080457800FF
:104E0000E0C3B3006F4CE200010032006F4CED00D4
:104E100006E8B70089C1B300724CE200020032001C
:104E2000724CED008044780001C72000914078006A
:104E300071CCBF008180FB004800DD000084700061
:104E400001003A00087024003C03070034C720002A
:104E5000144278008981FB00080178008A407800BC
:104E600060B6200091020700000478000B40780033
:104E700040040700340307000040EB00D7EBB70005
:104E8000D8EBB700D9EBB700DAEBB7000800780031
:104E9000ACECB700EACBBF00ADECB70006C8BF0072
:104EA000AEECB7006FCCBF00AFECB700EECBBF00ED
:104EB000B2ECB700605F8000B0ECB7004800DE00E5
:104EC000B1ECB70020222000B5040700BBECB7000E
:104ED000F0202000B2040700BAECB7000020200048
:104EE000AF040700BCECB700F0222000AC040700C0
:104EF000BDECB70030202000A9040700BEECB700CD
:104F00007CFE070066013700D74BE2003A003A000A
:104F1000C482A800834BA90010C0B300D7EBB70030
:104F20006ECCBF000080FB00C05B880070CCBF006F
:104F30000074A1007EEBB700D0C62000E05B8800C3
:104F40006CCCBF0001C2B300FF4F500002003E0016
:104F5000C1C6200091407800010078007AEBB700CC
:104F600070CCBF000000FB004F00DE00005C88003A
:104F70000044EB000004FD00D8EBB700D9EBB7000C
:104F8000DAEBB7000004FD006A81570011C0B300DE
:104F900060B72000660307008004FB00080078006B
:104FA000D8EBB70060C0B3004240A90001003C004C
:104FB00050C1B300560107008004FD00B6ECB700F5
:104FC0008004FD00F103070074EBB700B7ECB700F5
:104FD0006FF09700B8ECB7000080FB004600DE00E1
:104FE000DAEBB700B3ECB70042FE0700D76BEF0077
:104FF000C482A9002A01370050C1B3004401070050
:105000006ECCBF00B4ECB700D7CBBF00B6ECB70096
:1050100080C4B3004B040700B8ECB70035FE0700AE
:105020001F01370080C0B3002B010700E1C3B300AC
:1050300060B62000D4020700B0ECB7002DFE0700D8
:1050400011C0B300B0C1B30026040700140137003B
:10505000D74BE20043003A00834BA90010C0B300D5
:10506000D7EBB7006ECCBF000080FB00C05B8800B0
:1050700070CCBF000074A1007EEBB700D0C620004A
:10508000E05B8800C1C6200091407800D2C3B30025
:10509000C0C3B30080CF500002003E00C2C6200053
:1050A00012417800020078007AEBB70070CCBF00A4
:1050B0000000FB004F00DE00005C88000040EB00B9
:1050C000D8EBB700D9EBB700DAEBB7006DCCBF0077
:1050D0000003B20002003A0010C0B300D8EBB700E2
:1050E0006FCCBF00E54F4000050036006FCCBF001D
:1050F000E14F40000200320010C0B300D8EBB7000F
:105100006A81570011C0B30060B720000803070090
:105110000004FB00D86BEF0060C0B3004240A90060
:1051200001003C0050C1B300F900070008007800FE
:10513000B6ECB70074CBBF00B7ECB7006FF09700C8
:10514000B8ECB7000080FB004600DE00DAEBB700E9
:10515000B3ECB700E7FD07007B020700D76BEF0059
:10516000CF00370050C1B300E90007006ECCBF008C
:10517000B4ECB700D7CBBF00B6ECB700DDFD07003D
:10518000C7003700D74BE2003B003A00834BA90031
:1051900010C0B300D7EBB7006DCCBF000080FB00A0
:1051A000C05B88006FCCBF000074A1007EEBB7002D
:1051B000C0C62000E05B880000C4B3007AEBB700F3
:1051C0006FCCBF000000FB004F00DE00005C8800D9
:1051D0000040EB00D8EBB700D9EBB700DAEBB70033
:1051E0006CCCBF000003B20002003A0010C0B30054
:1051F000D8EBB7006ECCBF00E54F4000050036008D
:105200006FCCBF00E14F40000200320010C0B3007D
:10521000D8EBB7006A81570011C0B30060B7200017
:10522000C30207000004FB00D86BEF0060C0B300AE
:105230004240A90001003C0050C1B300B400070087
:1052400008007800B6ECB70074CBBF00B7ECB7002D
:105250006FF09700B8ECB7000080FB004600DE005E
:10526000DAEBB700B3ECB700A2FD07003602070087
:10527000D76BEF008A00370050C1B300A4000700CD
:105280006DCCBF00B4ECB700D7CBBF00B6ECB70015
:1052900098FD070082003700F0C3B3008E000700BE
:1052A00094FD07007E0037009E20EF00F10480008F
:1052B000E1048800E2048000D2048800D004800069
:1052C000C0048800C1048000B1048800B2048000DA
:1052D000A204880051F907000060FE0000202100B0
:1052E000A10720005C0607000060FE0022120400F7
:1052F000000000006A003700CC62AA0080C2B30040
:10530000750007006E4CE2000A003200010407003D
:105310006CCCBF00D50307000004E00004003A0095
:10532000A0C2B300D103070010C0B300CF03070031
:105330000A040700704CE2000A003200F50307007F
:105340006CCCBF00C90307000004E00004003A0071
:1053500070CCBF00C503070071CCBF00C3030700BA
:10536000FE030700EB0307006CCCBF00BF03070080
:10537000804478000004E0001F003A006DCCBF00BC
:10538000BA030700E30307006CCCBF000004A000D1
:10539000B603070018C0B30008007800ACECB700F3
:1053A0000840780002040700AEECB700084078001F
:1053B000FF030700B2ECB70008407800FC030700C9
:1053C000B3ECB70008407800F9030700B4ECB7006D
:1053D00008407800F6030700B5ECB70008407800F5
:1053E000F3030700B6ECB70009407800F0030700AC
:1053F000B7ECB70001003700AC6CEF00D703070033
:105400003CFD07002600370090C2B30032000700C1
:10541000C6CBBF00ACECB700C66BEF0035FD070094
:105420001F00370040072000001988002223EF00EA
:1054300000032100201988006CCCBF007F006000B1
:105440004019880021E3A80000E8230001002000A3
:10545000010607002023A900E0C3B3001E000700D7
:1054600020C3BF000008A30004003A000060FE0053
:1054700020C3BF000008A300FCFF32002023A800C7
:105480002003A9006CCCBF000080FB00000040009E
:105490000130200060807800ACECB70015FD0700FB
:1054A00003C4B300A2C620008040EB0010C0B300CC
:1054B00074F80700E05E88000040EB006AECB7007B
:1054C0006BECB7004F05BE004F04BE000080FA0031
:1054D0000000060000000600881F780000447800E5
:1054E0000600070010C0B300AAECB700080078005F
:1054F000ABECB7004F047800000006000204200067
:105500008000EB00A0CA20009BF507000000060009
:10551000881F78000044780030C0B300EEFF070019
:10552000105C8000ACECB7004800DE00ADECB700CA
:10553000D6CBBF000074A100AFECB70078CBBF00A2
:10554000B0ECB700D9CBBF00B1ECB700DACBBF00ED
:10555000B3ECB70008007800AEECB7004040800024
:10556000BAECB7004800DE00BBECB700DBCBBF00F5
:10557000BCECB700D7CBBF00B5ECB700C6CBBF00C3
:10558000C8ECB7004F04780000000600600020005F
:10559000AE21B70000000600F04BE200030032002D
:1055A000824BAB0001003A0004000700105C800051
:1055B0004200DE0061006000000006000060FE00A6
:1055C000D74BE20018003A00E1C3B30060B62000F8
:1055D0006D010700004178008040E900D0C3B300AE
:1055E00080CF500008003E00824BA80082CBA9006B
:1055F00082EBA900826BA90082ABA90074CBBF002B
:10560000E9ECB70008003700E0C3B300804F510059
:1056100005003C0063404100E14F500002003E00A5
:1056200082CBA80082ABA80000000600CE6BEF0082
:105630000848A9000888A90000000600889FBE004D
:105640008A9FBE008C1F78000006780081047800D5
:105650008205E900E18F4500120032000004780065
:105660001800FB0033F50700000578001900FB0067
:1056700030F50700800F5500030032000040550050
:105680000000FB00080037000804E8008904E80077
:105690000060FE000B0046000000E800880F50008C
:1056A000EFFF3A000000EB004F0678004F05BE0008
:1056B0004F04BE0000000600889FBE008A1F7800CD
:1056C00000057800104478000804E0000B00320068
:1056D000800478000800FB000CF507000000E000E3
:1056E000020032000854A100884C78000060FE00DF
:1056F000594478000804E000F6FF3A000A007800F8
:105700004F0578004F04BE000000060000000600B0
:105710000000060000000600000006000000060071
:10572000710407000000060000000600D1C1B300AC
:1057300010C0B300BEF7070003C4B300A2C6200028
:105740008040EB0010C0B300CEF70700E05E880099
:10575000000006009444A8008070200010408800DB
:105760000000EB00817020000000E800810F500075
:10577000FDFF3A000228EF009444A9000000060053
:1057800080007800E30F500007003200200720005F
:10579000808F500006003200E18F500005003A0073
:1057A000E2FF070003003700DDFF070001003700BC
:1057B00000000000100020000000060000000600AD
:1057C00000000600000378000040EB0004E8B7008A
:1057D00006027800004178000060FE003441690054
:1057E0008001EB0055C8B3000204E00003003D0057
:1057F00002404100054168000100370002414100BC
:105800008301E800E88F5100F7FF3A000140E9000A
:105810000080FB00000043000000E800800F520001
:10582000EDFF3A000300780005E8B70002007800B9
:1058300004E8B7000280FB00000006008142780007
:105840000002EB000104E0000F003200800178004C
:105850000041EB000002EB00F70F20002661290059
:105860004820DE00B380FB0081006A008780600072
:1058700081804000E1007B00010268000241E800F5
:1058800082CF5200F6FF3A000400780000000600C4
:105890000081FB004411DE006A11B9006F40600016
:1058A000024040000080FB0000000600889FBE0010
:1058B0008A9FBE008C1F7800000478008145780024
:1058C0008204780003057800044678000000240074
:1058D00011002000E004070000C8B300F0EBB7009F
:1058E000385F8800695F88007A5F8800C422A90059
:1058F0000000EB00C11220000000E800810F500002
:10590000FDFF3A00C422A8000000E900FEFF3A00B3
:1059100071C0B30050C5B300F201070040C5B30029
:105920000802070067006000FCFF3A00803E20008C
:105930000000E900FEFF3A0011C0B300B0C1B3009F
:10594000E8010700E1BE20009140780070C0B3007C
:10595000E4010700715F8000C808DE0090C0B3005A
:10596000E0010700C1BE20009140780030C0B300C4
:10597000DC010700615F8000C808DE0050C0B30092
:10598000D8010700B8C0B3008040EB0008407800A1
:10599000D401070008C4E800FB4F5400FAFF3A00A6
:1059A00081C1B300B0C0B300CE0107008C80FB0002
:1059B0008100E900CF08DE0010C2B3008140500032
:1059C00010C0B300C7010700C1C1B30030C2B300AB
:1059D000C401070031C3B30000202000920107007A
:1059E00021C0B300102020008F01070001C8B300C0
:1059F000202020008C01070001C8B30030202000C7
:105A00008901070001C9B30060202000860107005A
:105A100001C8B300702020008301070001C1B3005A
:105A2000802020008001070011C2B3000022200066
:105A30007D0107008040EB00102120007A01070063
:105A400081C7B30050C7B300A601070001C4B3006B
:105A5000D0C7B300A301070001C6B300F0C7B3006D
:105A6000A0010700F1C0B300F02220006E01070082
:105A700081C9B30010C3B3009A01070051C9B30034
:105A8000D0C5B3009701070041C8B30030C4B300CC
:105A900094010700080A2000F0202000C001070040
:105AA000000EB200880F5000FBFF3A0021C0B30087
:105AB000102020005C01070081C3B300F0C4B300D4
:105AC000880107000B007800EAEBB7000B40780074
:105AD0001701070000C0EB002601070041C0B3001A
:105AE000D0C6B3007F0107008040EB00D0C6B300F2
:105AF0007C01070000E82300010020005604070095
:105B0000380107000004E00001003A00F0EBB700A4
:105B100020C6B3008B01070071CFB30050C6B3009D
:105B200070010700F0CBBF000080FB004F0678003B
:105B30004F05BE004F04BE00000006000A0007002B
:105B4000F06BEF0000000600F00BA80071CFB3006F
:105B500050C6B300630107008040EB0030C7B300BC
:105B60006001070000000600F00BA90041C0B3006F
:105B700030C7B3005B01070080C0EB0050C6B30024
:105B80005801070000000600889FBE008A9FBE00E3
:105B90008C9FBE008004780001447800B0FF2F0085
:105BA000F00BAB005E0032000080EB00CA42E20066
:105BB0005B00350020C6B3006201070041C0B3009E
:105BC00030C7B30047010700003020007401070010
:105BD0000074A100EA4F500003003E000E010700D0
:105BE000ECCFB30047003700ED45500010302000E7
:105BF0006B0107000085FB002030200068010700D2
:105C00004800DD00800675004568DE006100600028
:105C1000E00498003030200061010700804C7800DB
:105C2000803020005E0107000085FB00BA04980068
:105C3000903020005A0107004800DD000000750088
:105C4000B0049800A0302000550107000085FB003B
:105C50009A049800B0302000510107004800DD0090
:105C6000000075009004980088CF550002003600AF
:105C700008467800010037000B4678000C04E0006D
:105C80000C0032008045EB000005EB005904900049
:105C900008044500C03020000A0040004001070011
:105CA000004C78008B45E8000A05E8008B4F560051
:105CB000F6FF3A008C4C98000C85FB00E030200089
:105CC0000A0040003601070000447800F030200050
:105CD0000A0040003201070000417800E84C9800BB
:105CE000F04C98008D0078000150A100108428002D
:105CF000808F500003003A000204E00001003D00E4
:105D00001CC0B30011C0B300B0C1B300F500070060
:105D10008040EB0030C7B300F20007000C00FB002E
:105D20004F06BE004F05BE004F04BE000000060037
:105D3000889FBE008A9FBE008004780001457800DD
:105D400082057800F0CBBF008080EB006C00320051
:105D50000014A000F0EBB7000A04E00005003200D8
:105D600060C3B300F70007008000EB000008A30049
:105D700063003A00494090006B444000B1C0B3005A
:105D80000000EB00A8000700884078001000200009
:105D9000A500070059009000188628000000E000C8
:105DA00001003A0018842800884078002000200074
:105DB0009D000700C840DE00300020009A00070068
:105DC000894890004000200097000700C1BE2000D5
:105DD000914078005000200093000700615F800030
:105DE000C808DE00600020008F00070099009000C6
:105DF0000100E0000A003200F00F2000808F500008
:105E00000700320070002000870007009900900012
:105E1000C808DE008000200083000700060037006D
:105E200080C0EB00700020007F00070080C0EB0006
:105E3000800020007C000700C1BE20009140780057
:105E40009000200078000700615F8000C808DE0035
:105E5000A000200074000700E1BE200091407800FF
:105E6000B000200070000700715F8000C808DE00ED
:105E7000C00020006C000700494090000004E000D2
:105E80000A0032000044EB000880FB00B9009000DB
:105E9000E0C078006D004000630007000844E8009F
:105EA00049409000884F5000F7FF3E0011C0B300FA
:105EB00070C3B3008B0007000A04E00002003A0040
:105EC000050037000060FE0060C3B3009D000700BE
:105ED0000008A300FBFF3A0080C4B300990007004C
:105EE000804078000180EA00610060000B00E00063
:105EF00001003200814D7800F02BA9008000FB00EA
:105F0000010078004F05BE004F04BE0000000600EF
